{
  "transactions": [
    {
      "hash": "0x37444d4a7ef7f26a3e798ad3f3d2abfd019a8a77ca5a284eb9153d1567cb34bd",
      "transactionType": "CREATE",
      "contractName": "Vault",
      "contractAddress": "0x6aa9cd608f9984c3122da1b94deb6930c9aae364",
      "function": null,
      "arguments": [
        "0x1459213733F023b55444487eE9385A8266FD0F08"
      ],
      "transaction": {
        "from": "0xf39fd6e51aad88f6f4ce6ab8827279cfffb92266",
        "gas": "0x3fb81",
        "value": "0x0",
        "input": "0x608060405234801561000f575f80fd5b506040516102c53803806102c583398101604081905261002e91610052565b5f80546001600160a01b0319166001600160a01b039290921691909117905561007f565b5f60208284031215610062575f80fd5b81516001600160a01b0381168114610078575f80fd5b9392505050565b6102398061008c5f395ff3fe60806040526004361061002b575f3560e01c8063d0e30db01461003e578063db006a7514610046575f80fd5b3661003a57610038610065565b005b5f80fd5b610038610065565b348015610051575f80fd5b506100386100603660046101ec565b6100f2565b5f546040516340c10f1960e01b81523360048201523460248201819052916001600160a01b0316906340c10f19906044015f604051808303815f87803b1580156100ad575f80fd5b505af11580156100bf573d5f803e3d5ffd5b50506040518392503391507fd8ef0e26ac1e5483e382307c78976659745292bc42abbf3709a67688b301d372905f90a350565b5f54604051632770a7eb60e21b8152336004820152602481018390526001600160a01b0390911690639dc29fac906044015f604051808303815f87803b15801561013a575f80fd5b505af115801561014c573d5f803e3d5ffd5b50506040515f925033915083908381818185875af1925050503d805f811461018f576040519150601f19603f3d011682016040523d82523d5f602084013e610194565b606091505b50509050806101bc57604051636fb77b6d60e01b815233600482015260240160405180910390fd5b604051829033907f34e9b183358c4ce3d806b23e1d456f3231f6d79dcfdcda75ea28819c446ef4b7905f90a35050565b5f602082840312156101fc575f80fd5b503591905056fea2646970667358221220aeb54fa4377b667d7804ac4f9d4b0a64c77b1744548ff458756b5608fb8e950564736f6c634300081800330000000000000000000000001459213733f023b55444487ee9385a8266fd0f08",
        "nonce": "0x8e7",
        "chainId": "0x66eee"
      },
      "additionalContracts": [],
      "isFixedGasLimit": false
    },
    {
      "hash": "0x9d28fa5fe3b33a0cfbace1dd1c46001c4e9171109e0583e7993da8567c311da0",
      "transactionType": "CALL",
      "contractName": null,
      "contractAddress": "0x1459213733f023b55444487ee9385a8266fd0f08",
      "function": "grantRole(bytes32,address)",
      "arguments": [
        "0x74088672d183ee797e5da8fa05521697933bd36698c07546fac57bdf4023d877",
        "0x6aa9cd608F9984C3122dA1b94dEB6930c9AaE364"
      ],
      "transaction": {
        "from": "0xf39fd6e51aad88f6f4ce6ab8827279cfffb92266",
        "to": "0x1459213733f023b55444487ee9385a8266fd0f08",
        "gas": "0x1264a",
        "value": "0x0",
        "input": "0x2f2ff15d74088672d183ee797e5da8fa05521697933bd36698c07546fac57bdf4023d8770000000000000000000000006aa9cd608f9984c3122da1b94deb6930c9aae364",
        "nonce": "0x8e8",
        "chainId": "0x66eee"
      },
      "additionalContracts": [],
      "isFixedGasLimit": false
    }
  ],
  "receipts": [
    {
      "status": "0x1",
      "cumulativeGasUsed": "0x3103c",
      "logs": [],
      "logsBloom": "0x00000000000000000000000000000000000000000000000000000000000000000000000000000000000000000000000000000000000000000000000000000000000000000000000000000000000000000000000000000000000000000000000000000000000000000000000000000000000000000000000000000000000000000000000000000000000000000000000000000000000000000000000000000000000000000000000000000000000000000000000000000000000000000000000000000000000000000000000000000000000000000000000000000000000000000000000000000000000000000000000000000000000000000000000000000000",
      "type": "0x2",
      "transactionHash": "0x37444d4a7ef7f26a3e798ad3f3d2abfd019a8a77ca5a284eb9153d1567cb34bd",
      "transactionIndex": "0x0",
      "blockHash": "0x36527a2312d6574a11ada85f7db3f03a8490ca43e33d1186ade2111148ff3e7c",
      "blockNumber": "0xb6cfffa",
      "gasUsed": "0x3103c",
      "effectiveGasPrice": "0x25734db",
      "blobGasPrice": "0x1",
      "from": "0xf39fd6e51aad88f6f4ce6ab8827279cfffb92266",
      "to": null,
      "contractAddress": "0x6aa9cd608f9984c3122da1b94deb6930c9aae364"
    },
    {
      "status": "0x1",
      "cumulativeGasUsed": "0xc93a",
      "logs": [
        {
          "address": "0x1459213733f023b55444487ee9385a8266fd0f08",
          "topics": [
            "0x2f8788117e7eff1d82e926ec794901d17c78024a50270940304540a733656f0d",
            "0x74088672d183ee797e5da8fa05521697933bd36698c07546fac57bdf4023d877",
            "0x0000000000000000000000006aa9cd608f9984c3122da1b94deb6930c9aae364",
            "0x000000000000000000000000f39fd6e51aad88f6f4ce6ab8827279cfffb92266"
          ],
          "data": "0x",
          "blockHash": "0x6258ecc6bc0e60ec4738cabd0de42622810d426faea3488d541ddcb075630c49",
          "blockNumber": "0xb6cfffb",
          "blockTimestamp": "0x68bd0569",
          "transactionHash": "0x9d28fa5fe3b33a0cfbace1dd1c46001c4e9171109e0583e7993da8567c311da0",
          "transactionIndex": "0x0",
          "logIndex": "0x0",
          "removed": false
        }
      ],
      "logsBloom": "0x00000004100000000000040000000000000000000000000000004000000000000000000000000000000000000000000000000000000000000000000000000000000000000000000000000000000000000000080000000000000000000000000000000000000000000000000100000000000000000000000000000000000000000000000000000000000000000000000000000000000200000000000000000000000000000000008000000040000000000000000400000000001000000000000000000000000001200000000000000000000000002000000100000000000000000000000000000000000000000000000000000000000000000000000000000000",
      "type": "0x2",
      "transactionHash": "0x9d28fa5fe3b33a0cfbace1dd1c46001c4e9171109e0583e7993da8567c311da0",
      "transactionIndex": "0x0",
      "blockHash": "0x6258ecc6bc0e60ec4738cabd0de42622810d426faea3488d541ddcb075630c49",
      "blockNumber": "0xb6cfffb",
      "gasUsed": "0xc93a",
      "effectiveGasPrice": "0x20c4e40",
      "blobGasPrice": "0x1",
      "from": "0xf39fd6e51aad88f6f4ce6ab8827279cfffb92266",
      "to": "0x1459213733f023b55444487ee9385a8266fd0f08",
      "contractAddress": null
    }
  ],
  "libraries": [],
  "pending": [],
  "returns": {},
  "timestamp": 1757218155024,
  "chain": 421614,
  "commit": null
}