{
  "transactions": [
    {
      "hash": "0x8f8f5012592ded0a6b8ae1a97cd85543e9cfcde24e1b332642f109ce3e7a7291",
      "transactionType": "CREATE",
      "contractName": "Vault",
      "contractAddress": "0x5fc0d8d815c1697bb63d4074de66456157549876",
      "function": null,
      "arguments": [
        "0x0273C4B1e2682D0C317a1571aa16F060cF6C5192"
      ],
      "transaction": {
        "from": "0x37ca3984f65beb9400669c94faeefaf1fc649964",
        "gas": "0x40986",
        "value": "0x0",
        "input": "0x608060405234801561000f575f80fd5b506040516102c53803806102c583398101604081905261002e91610052565b5f80546001600160a01b0319166001600160a01b039290921691909117905561007f565b5f60208284031215610062575f80fd5b81516001600160a01b0381168114610078575f80fd5b9392505050565b6102398061008c5f395ff3fe60806040526004361061002b575f3560e01c8063d0e30db01461003e578063db006a7514610046575f80fd5b3661003a57610038610065565b005b5f80fd5b610038610065565b348015610051575f80fd5b506100386100603660046101ec565b6100f2565b5f546040516340c10f1960e01b81523360048201523460248201819052916001600160a01b0316906340c10f19906044015f604051808303815f87803b1580156100ad575f80fd5b505af11580156100bf573d5f803e3d5ffd5b50506040518392503391507fd8ef0e26ac1e5483e382307c78976659745292bc42abbf3709a67688b301d372905f90a350565b5f54604051632770a7eb60e21b8152336004820152602481018390526001600160a01b0390911690639dc29fac906044015f604051808303815f87803b15801561013a575f80fd5b505af115801561014c573d5f803e3d5ffd5b50506040515f925033915083908381818185875af1925050503d805f811461018f576040519150601f19603f3d011682016040523d82523d5f602084013e610194565b606091505b50509050806101bc57604051636fb77b6d60e01b815233600482015260240160405180910390fd5b604051829033907f34e9b183358c4ce3d806b23e1d456f3231f6d79dcfdcda75ea28819c446ef4b7905f90a35050565b5f602082840312156101fc575f80fd5b503591905056fea2646970667358221220aeb54fa4377b667d7804ac4f9d4b0a64c77b1744548ff458756b5608fb8e950564736f6c634300081800330000000000000000000000000273c4b1e2682d0c317a1571aa16f060cf6c5192",
        "nonce": "0x9",
        "chainId": "0x66eee"
      },
      "additionalContracts": [],
      "isFixedGasLimit": false
    },
    {
      "hash": "0x2b2fe6f1202eb6d3bee1b979358096e33c90ff084167da4e786b0a5238171d16",
      "transactionType": "CALL",
      "contractName": null,
      "contractAddress": "0x0273c4b1e2682d0c317a1571aa16f060cf6c5192",
      "function": "grantRole(bytes32,address)",
      "arguments": [
        "0x74088672d183ee797e5da8fa05521697933bd36698c07546fac57bdf4023d877",
        "0x5fC0D8d815c1697Bb63d4074De66456157549876"
      ],
      "transaction": {
        "from": "0x37ca3984f65beb9400669c94faeefaf1fc649964",
        "to": "0x0273c4b1e2682d0c317a1571aa16f060cf6c5192",
        "gas": "0x10797",
        "value": "0x0",
        "input": "0x2f2ff15d74088672d183ee797e5da8fa05521697933bd36698c07546fac57bdf4023d8770000000000000000000000005fc0d8d815c1697bb63d4074de66456157549876",
        "nonce": "0xa",
        "chainId": "0x66eee"
      },
      "additionalContracts": [],
      "isFixedGasLimit": false
    }
  ],
  "receipts": [
    {
      "status": "0x1",
      "cumulativeGasUsed": "0xf2b4f",
      "logs": [],
      "logsBloom": "0x00000000000000000000000000000000000000000000000000000000000000000000000000000000000000000000000000000000000000000000000000000000000000000000000000000000000000000000000000000000000000000000000000000000000000000000000000000000000000000000000000000000000000000000000000000000000000000000000000000000000000000000000000000000000000000000000000000000000000000000000000000000000000000000000000000000000000000000000000000000000000000000000000000000000000000000000000000000000000000000000000000000000000000000000000000000",
      "type": "0x2",
      "transactionHash": "0x8f8f5012592ded0a6b8ae1a97cd85543e9cfcde24e1b332642f109ce3e7a7291",
      "transactionIndex": "0x3",
      "blockHash": "0xf02958c9edafafe7c8d6cd9698559b8234315adc467ed1d0fd160721651c56a0",
      "blockNumber": "0xb71fcfc",
      "gasUsed": "0x3103c",
      "effectiveGasPrice": "0x5f5e100",
      "from": "0x37ca3984f65beb9400669c94faeefaf1fc649964",
      "to": null,
      "contractAddress": "0x5fc0d8d815c1697bb63d4074de66456157549876",
      "gasUsedForL1": "0x0",
      "l1BlockNumber": "0x8bbad8",
      "timeboosted": false
    },
    {
      "status": "0x1",
      "cumulativeGasUsed": "0x98c8f",
      "logs": [
        {
          "address": "0x0273c4b1e2682d0c317a1571aa16f060cf6c5192",
          "topics": [
            "0x2f8788117e7eff1d82e926ec794901d17c78024a50270940304540a733656f0d",
            "0x74088672d183ee797e5da8fa05521697933bd36698c07546fac57bdf4023d877",
            "0x0000000000000000000000005fc0d8d815c1697bb63d4074de66456157549876",
            "0x00000000000000000000000037ca3984f65beb9400669c94faeefaf1fc649964"
          ],
          "data": "0x",
          "blockHash": "0x78179290392447270a4dc0296c34f7b36b22950a4cfc9a8c861ea4523ea45072",
          "blockNumber": "0xb71fd03",
          "transactionHash": "0x2b2fe6f1202eb6d3bee1b979358096e33c90ff084167da4e786b0a5238171d16",
          "transactionIndex": "0x4",
          "logIndex": "0x19",
          "removed": false
        }
      ],
      "logsBloom": "0x00000004100000000000000000000000000000000000000000004000000000000010000000080000000000200000000000000000000000000000000000000008000000000000000000000000000000000000080000000000000000000000000000000800000000000000000000000001000000000000000000000000000000000000000000000000000020000000000000000000000000000000000000000000000000000000000000000000000000000000000000000000001000000000000000000000000000400000000000400000000000000000000100000000000000000000000000000000000000000000000000000000000000000000000000000000",
      "type": "0x2",
      "transactionHash": "0x2b2fe6f1202eb6d3bee1b979358096e33c90ff084167da4e786b0a5238171d16",
      "transactionIndex": "0x4",
      "blockHash": "0x78179290392447270a4dc0296c34f7b36b22950a4cfc9a8c861ea4523ea45072",
      "blockNumber": "0xb71fd03",
      "gasUsed": "0xc93a",
      "effectiveGasPrice": "0x5f5e100",
      "from": "0x37ca3984f65beb9400669c94faeefaf1fc649964",
      "to": "0x0273c4b1e2682d0c317a1571aa16f060cf6c5192",
      "contractAddress": null,
      "gasUsedForL1": "0x0",
      "l1BlockNumber": "0x8bbad8",
      "timeboosted": false
    }
  ],
  "libraries": [],
  "pending": [],
  "returns": {},
  "timestamp": 1757301176573,
  "chain": 421614,
  "commit": null
}