{
  "transactions": [
    {
      "hash": "0xb0594eaa0dd4bb9b3a5e37a04c5d3ab7f252ac342104df25176e19c390f1e664",
      "transactionType": "CREATE",
      "contractName": "Vault",
      "contractAddress": "0xd1f62a8bb7b605940f1feac87ad2717003617716",
      "function": null,
      "arguments": [
        "0xBCdf4560487a86b97b923D2d5eFa16689061b02e"
      ],
      "transaction": {
        "from": "0xf39fd6e51aad88f6f4ce6ab8827279cfffb92266",
        "gas": "0x3fb81",
        "value": "0x0",
        "input": "0x608060405234801561000f575f80fd5b506040516102c53803806102c583398101604081905261002e91610052565b5f80546001600160a01b0319166001600160a01b039290921691909117905561007f565b5f60208284031215610062575f80fd5b81516001600160a01b0381168114610078575f80fd5b9392505050565b6102398061008c5f395ff3fe60806040526004361061002b575f3560e01c8063d0e30db01461003e578063db006a7514610046575f80fd5b3661003a57610038610065565b005b5f80fd5b610038610065565b348015610051575f80fd5b506100386100603660046101ec565b6100f2565b5f546040516340c10f1960e01b81523360048201523460248201819052916001600160a01b0316906340c10f19906044015f604051808303815f87803b1580156100ad575f80fd5b505af11580156100bf573d5f803e3d5ffd5b50506040518392503391507fd8ef0e26ac1e5483e382307c78976659745292bc42abbf3709a67688b301d372905f90a350565b5f54604051632770a7eb60e21b8152336004820152602481018390526001600160a01b0390911690639dc29fac906044015f604051808303815f87803b15801561013a575f80fd5b505af115801561014c573d5f803e3d5ffd5b50506040515f925033915083908381818185875af1925050503d805f811461018f576040519150601f19603f3d011682016040523d82523d5f602084013e610194565b606091505b50509050806101bc57604051636fb77b6d60e01b815233600482015260240160405180910390fd5b604051829033907f34e9b183358c4ce3d806b23e1d456f3231f6d79dcfdcda75ea28819c446ef4b7905f90a35050565b5f602082840312156101fc575f80fd5b503591905056fea2646970667358221220aeb54fa4377b667d7804ac4f9d4b0a64c77b1744548ff458756b5608fb8e950564736f6c63430008180033000000000000000000000000bcdf4560487a86b97b923d2d5efa16689061b02e",
        "nonce": "0x444b",
        "chainId": "0xaa36a7"
      },
      "additionalContracts": [],
      "isFixedGasLimit": false
    },
    {
      "hash": "0xeda523c0e950c05addb360767da50c8ac331bf64fe098443536480bf9e7a483a",
      "transactionType": "CALL",
      "contractName": null,
      "contractAddress": "0xbcdf4560487a86b97b923d2d5efa16689061b02e",
      "function": "grantRole(bytes32,address)",
      "arguments": [
        "0x74088672d183ee797e5da8fa05521697933bd36698c07546fac57bdf4023d877",
        "0xd1F62A8BB7b605940f1FEAC87aD2717003617716"
      ],
      "transaction": {
        "from": "0xf39fd6e51aad88f6f4ce6ab8827279cfffb92266",
        "to": "0xbcdf4560487a86b97b923d2d5efa16689061b02e",
        "gas": "0x1264a",
        "value": "0x0",
        "input": "0x2f2ff15d74088672d183ee797e5da8fa05521697933bd36698c07546fac57bdf4023d877000000000000000000000000d1f62a8bb7b605940f1feac87ad2717003617716",
        "nonce": "0x444c",
        "chainId": "0xaa36a7"
      },
      "additionalContracts": [],
      "isFixedGasLimit": false
    }
  ],
  "receipts": [
    {
      "status": "0x1",
      "cumulativeGasUsed": "0x3103c",
      "logs": [],
      "logsBloom": "0x00000000000000000000000000000000000000000000000000000000000000000000000000000000000000000000000000000000000000000000000000000000000000000000000000000000000000000000000000000000000000000000000000000000000000000000000000000000000000000000000000000000000000000000000000000000000000000000000000000000000000000000000000000000000000000000000000000000000000000000000000000000000000000000000000000000000000000000000000000000000000000000000000000000000000000000000000000000000000000000000000000000000000000000000000000000",
      "type": "0x2",
      "transactionHash": "0xb0594eaa0dd4bb9b3a5e37a04c5d3ab7f252ac342104df25176e19c390f1e664",
      "transactionIndex": "0x0",
      "blockHash": "0xd9fce6aaa65b80773ebdbc188bddac90c9359e2f5958a549dad55e1f84a70fce",
      "blockNumber": "0x8ba161",
      "gasUsed": "0x3103c",
      "effectiveGasPrice": "0x12c794",
      "blobGasPrice": "0x1103fa493ccc6",
      "from": "0xf39fd6e51aad88f6f4ce6ab8827279cfffb92266",
      "to": null,
      "contractAddress": "0xd1f62a8bb7b605940f1feac87ad2717003617716"
    },
    {
      "status": "0x1",
      "cumulativeGasUsed": "0xc93a",
      "logs": [
        {
          "address": "0xbcdf4560487a86b97b923d2d5efa16689061b02e",
          "topics": [
            "0x2f8788117e7eff1d82e926ec794901d17c78024a50270940304540a733656f0d",
            "0x74088672d183ee797e5da8fa05521697933bd36698c07546fac57bdf4023d877",
            "0x000000000000000000000000d1f62a8bb7b605940f1feac87ad2717003617716",
            "0x000000000000000000000000f39fd6e51aad88f6f4ce6ab8827279cfffb92266"
          ],
          "data": "0x",
          "blockHash": "0x1eb9412c5155f4f29ce59838f27a26617c9e5718d5829d8c0a06adf61cd2327d",
          "blockNumber": "0x8ba162",
          "blockTimestamp": "0x68bd162d",
          "transactionHash": "0xeda523c0e950c05addb360767da50c8ac331bf64fe098443536480bf9e7a483a",
          "transactionIndex": "0x0",
          "logIndex": "0x0",
          "removed": false
        }
      ],
      "logsBloom": "0x00000004100004000000000000000000000000000000000000004000000002000000000000000000000000000000000000000000000020000000000000000000000000000000000000000000000000000000080000000000000000000000000000000000000000000040000100000000000000000000000000000000000000000000000400000000000000000000000000000000000000000000000000000000000000000000000000000000000000000000000000000000001000000000000000000000020000200000000000000000000000002000000100000000000000000000000000000000000000000000000000000000000000000000000000000000",
      "type": "0x2",
      "transactionHash": "0xeda523c0e950c05addb360767da50c8ac331bf64fe098443536480bf9e7a483a",
      "transactionIndex": "0x0",
      "blockHash": "0x1eb9412c5155f4f29ce59838f27a26617c9e5718d5829d8c0a06adf61cd2327d",
      "blockNumber": "0x8ba162",
      "gasUsed": "0xc93a",
      "effectiveGasPrice": "0x1294f1",
      "blobGasPrice": "0xf1ffae859623",
      "from": "0xf39fd6e51aad88f6f4ce6ab8827279cfffb92266",
      "to": "0xbcdf4560487a86b97b923d2d5efa16689061b02e",
      "contractAddress": null
    }
  ],
  "libraries": [],
  "pending": [],
  "returns": {},
  "timestamp": 1757222452245,
  "chain": 11155111,
  "commit": null
}