{
  "transactions": [
    {
      "hash": "0xb1daf8d0f1ae7fae7f7641a527becfc2d4cbbe0c14ab17362de021fa657db4cf",
      "transactionType": "CREATE",
      "contractName": "Vault",
      "contractAddress": "0x8bbbabf2b0a7302df27b2b997331276926b90a1b",
      "function": null,
      "arguments": [
        "0x1a596EF4c034A66CBA457C87260b119988cd4Fe7"
      ],
      "transaction": {
        "from": "0x37ca3984f65beb9400669c94faeefaf1fc649964",
        "gas": "0x3fb81",
        "value": "0x0",
        "input": "0x608060405234801561000f575f80fd5b506040516102c53803806102c583398101604081905261002e91610052565b5f80546001600160a01b0319166001600160a01b039290921691909117905561007f565b5f60208284031215610062575f80fd5b81516001600160a01b0381168114610078575f80fd5b9392505050565b6102398061008c5f395ff3fe60806040526004361061002b575f3560e01c8063d0e30db01461003e578063db006a7514610046575f80fd5b3661003a57610038610065565b005b5f80fd5b610038610065565b348015610051575f80fd5b506100386100603660046101ec565b6100f2565b5f546040516340c10f1960e01b81523360048201523460248201819052916001600160a01b0316906340c10f19906044015f604051808303815f87803b1580156100ad575f80fd5b505af11580156100bf573d5f803e3d5ffd5b50506040518392503391507fd8ef0e26ac1e5483e382307c78976659745292bc42abbf3709a67688b301d372905f90a350565b5f54604051632770a7eb60e21b8152336004820152602481018390526001600160a01b0390911690639dc29fac906044015f604051808303815f87803b15801561013a575f80fd5b505af115801561014c573d5f803e3d5ffd5b50506040515f925033915083908381818185875af1925050503d805f811461018f576040519150601f19603f3d011682016040523d82523d5f602084013e610194565b606091505b50509050806101bc57604051636fb77b6d60e01b815233600482015260240160405180910390fd5b604051829033907f34e9b183358c4ce3d806b23e1d456f3231f6d79dcfdcda75ea28819c446ef4b7905f90a35050565b5f602082840312156101fc575f80fd5b503591905056fea2646970667358221220aeb54fa4377b667d7804ac4f9d4b0a64c77b1744548ff458756b5608fb8e950564736f6c634300081800330000000000000000000000001a596ef4c034a66cba457c87260b119988cd4fe7",
        "nonce": "0x2c",
        "chainId": "0xaa36a7"
      },
      "additionalContracts": [],
      "isFixedGasLimit": false
    },
    {
      "hash": "0x7768c1698d4917fef796a29c5ef6ead60642e110517c3b0ea873847eb6f82311",
      "transactionType": "CALL",
      "contractName": null,
      "contractAddress": "0x1a596ef4c034a66cba457c87260b119988cd4fe7",
      "function": "grantRole(bytes32,address)",
      "arguments": [
        "0x74088672d183ee797e5da8fa05521697933bd36698c07546fac57bdf4023d877",
        "0x8bBbaBF2B0A7302DF27b2b997331276926b90A1B"
      ],
      "transaction": {
        "from": "0x37ca3984f65beb9400669c94faeefaf1fc649964",
        "to": "0x1a596ef4c034a66cba457c87260b119988cd4fe7",
        "gas": "0x1264a",
        "value": "0x0",
        "input": "0x2f2ff15d74088672d183ee797e5da8fa05521697933bd36698c07546fac57bdf4023d8770000000000000000000000008bbbabf2b0a7302df27b2b997331276926b90a1b",
        "nonce": "0x2d",
        "chainId": "0xaa36a7"
      },
      "additionalContracts": [],
      "isFixedGasLimit": false
    }
  ],
  "receipts": [
    {
      "status": "0x1",
      "cumulativeGasUsed": "0x2c91fac",
      "logs": [],
      "logsBloom": "0x00000000000000000000000000000000000000000000000000000000000000000000000000000000000000000000000000000000000000000000000000000000000000000000000000000000000000000000000000000000000000000000000000000000000000000000000000000000000000000000000000000000000000000000000000000000000000000000000000000000000000000000000000000000000000000000000000000000000000000000000000000000000000000000000000000000000000000000000000000000000000000000000000000000000000000000000000000000000000000000000000000000000000000000000000000000",
      "type": "0x2",
      "transactionHash": "0xb1daf8d0f1ae7fae7f7641a527becfc2d4cbbe0c14ab17362de021fa657db4cf",
      "transactionIndex": "0x48",
      "blockHash": "0x5b4ed1e56856e8c4b2f96164278da87076b4f4ea60ec0fde7403c80e0733be7f",
      "blockNumber": "0x8bba63",
      "gasUsed": "0x3103c",
      "effectiveGasPrice": "0x38c5d3",
      "from": "0x37ca3984f65beb9400669c94faeefaf1fc649964",
      "to": null,
      "contractAddress": "0x8bbbabf2b0a7302df27b2b997331276926b90a1b"
    },
    {
      "status": "0x1",
      "cumulativeGasUsed": "0xfe6c71",
      "logs": [
        {
          "address": "0x1a596ef4c034a66cba457c87260b119988cd4fe7",
          "topics": [
            "0x2f8788117e7eff1d82e926ec794901d17c78024a50270940304540a733656f0d",
            "0x74088672d183ee797e5da8fa05521697933bd36698c07546fac57bdf4023d877",
            "0x0000000000000000000000008bbbabf2b0a7302df27b2b997331276926b90a1b",
            "0x00000000000000000000000037ca3984f65beb9400669c94faeefaf1fc649964"
          ],
          "data": "0x",
          "blockHash": "0xe77a58c709c61c6518af426a4d04b12faad3b3a08b0f4e346d1febfb6a6a8310",
          "blockNumber": "0x8bba66",
          "transactionHash": "0x7768c1698d4917fef796a29c5ef6ead60642e110517c3b0ea873847eb6f82311",
          "transactionIndex": "0x79",
          "logIndex": "0xa3",
          "removed": false
        }
      ],
      "logsBloom": "0x00000004100000400000000000000000000000000000000000004000000000000000000000000000000000200000000000000000000000000000000000000008000000000000000000000000000000000000080000000000000020000000000000000000000000000000000000000000000000000000800040000000000000000000000000000000000000000000000000000000000000000000000000000000000000000040000000000000000000000000000000000000001000000000000000000000000000000000000000400000000000000000000100000000000000000000000000000000000000000000000000001000000000000000000000000000",
      "type": "0x2",
      "transactionHash": "0x7768c1698d4917fef796a29c5ef6ead60642e110517c3b0ea873847eb6f82311",
      "transactionIndex": "0x79",
      "blockHash": "0xe77a58c709c61c6518af426a4d04b12faad3b3a08b0f4e346d1febfb6a6a8310",
      "blockNumber": "0x8bba66",
      "gasUsed": "0xc93a",
      "effectiveGasPrice": "0x3c0084",
      "from": "0x37ca3984f65beb9400669c94faeefaf1fc649964",
      "to": "0x1a596ef4c034a66cba457c87260b119988cd4fe7",
      "contractAddress": null
    }
  ],
  "libraries": [],
  "pending": [],
  "returns": {},
  "timestamp": 1757299789725,
  "chain": 11155111,
  "commit": null
}