{
  "transactions": [
    {
      "hash": "0x6728fd65ebf0087965d8b184667baa2d6cbbc134b1a947c24547a21d5d26be01",
      "transactionType": "CALL",
      "contractName": null,
      "contractAddress": "0x26c39daf444c0653bac7611153481500754655e3",
      "function": "applyChainUpdates((uint64,bool,bytes,bytes,(bool,uint128,uint128),(bool,uint128,uint128))[])",
      "arguments": [
        "[(3478487238524512106, false, 0x0000000000000000000000000756a4434da1bfe16e2e29fe0dc7f7b7df4745af, 0x0000000000000000000000000273c4b1e2682d0c317a1571aa16f060cf6c5192, (false, 0, 0), (false, 0, 0))]"
      ],
      "transaction": {
        "from": "0x37ca3984f65beb9400669c94faeefaf1fc649964",
        "to": "0x26c39daf444c0653bac7611153481500754655e3",
        "gas": "0x15f77",
        "value": "0x0",
        "input": "0xdb6327dc000000000000000000000000000000000000000000000000000000000000002000000000000000000000000000000000000000000000000000000000000000010000000000000000000000000000000000000000000000000000000000000020000000000000000000000000000000000000000000000000304611b6affba76a00000000000000000000000000000000000000000000000000000000000000000000000000000000000000000000000000000000000000000000000000000140000000000000000000000000000000000000000000000000000000000000018000000000000000000000000000000000000000000000000000000000000000000000000000000000000000000000000000000000000000000000000000000000000000000000000000000000000000000000000000000000000000000000000000000000000000000000000000000000000000000000000000000000000000000000000000000000000000000000000000000000000000000000000000000000000000000000000000000000000000000000000000000000000000000000000000000000000000000000000000000000000000000000000000000000000000200000000000000000000000000756a4434da1bfe16e2e29fe0dc7f7b7df4745af00000000000000000000000000000000000000000000000000000000000000200000000000000000000000000273c4b1e2682d0c317a1571aa16f060cf6c5192",
        "nonce": "0x3b",
        "chainId": "0xaa36a7"
      },
      "additionalContracts": [],
      "isFixedGasLimit": false
    }
  ],
  "receipts": [
    {
      "status": "0x1",
      "cumulativeGasUsed": "0xc135a3",
      "logs": [
        {
          "address": "0x26c39daf444c0653bac7611153481500754655e3",
          "topics": [
            "0x5204aec90a3c794d8e90fded8b46ae9c7c552803e7e832e0c1d358396d859916"
          ],
          "data": "0x000000000000000000000000000000000000000000000000304611b6affba76a",
          "blockHash": "0xdca033317a28cc835728ae0a89c3046e1889040eb32fdca39f5327cfb73b2e87",
          "blockNumber": "0x8bc15d",
          "transactionHash": "0x6728fd65ebf0087965d8b184667baa2d6cbbc134b1a947c24547a21d5d26be01",
          "transactionIndex": "0x4d",
          "logIndex": "0x54",
          "removed": false
        }
      ],
      "logsBloom": "0x00000000000000000000000000000000000000000000000000000000000000000000000000000000000000000000000000000000000000000000000000000000000000000000000000000000000000000000000000000000000000000000000000000000000000000000000000000000000000000010200000000000000000000000000000000000000000000000000000000000000000000000000000000000000200000000000000000000000000000000000000000000000000000000080000000000040000000000000000000000040000000000000000000000000000000000000000000000000000000000000000000000000000000000000000000000",
      "type": "0x2",
      "transactionHash": "0x6728fd65ebf0087965d8b184667baa2d6cbbc134b1a947c24547a21d5d26be01",
      "transactionIndex": "0x4d",
      "blockHash": "0xdca033317a28cc835728ae0a89c3046e1889040eb32fdca39f5327cfb73b2e87",
      "blockNumber": "0x8bc15d",
      "gasUsed": "0xfe75",
      "effectiveGasPrice": "0x3e5f3d",
      "from": "0x37ca3984f65beb9400669c94faeefaf1fc649964",
      "to": "0x26c39daf444c0653bac7611153481500754655e3",
      "contractAddress": null
    }
  ],
  "libraries": [],
  "pending": [],
  "returns": {},
  "timestamp": 1757321726814,
  "chain": 11155111,
  "commit": null
}