{
  "transactions": [
    {
      "hash": "0xefb639bc308cd487e63e732454bf884b7fd823b0963df0e8f108235c537019f3",
      "transactionType": "CALL",
      "contractName": null,
      "contractAddress": "0x727625cf0fde96572c15c763a69266f542b59360",
      "function": "applyChainUpdates((uint64,bool,bytes,bytes,(bool,uint128,uint128),(bool,uint128,uint128))[])",
      "arguments": [
        "[(3478487238524512106, true, 0x0000000000000000000000001459213733f023b55444487ee9385a8266fd0f08, 0x00000000000000000000000096cb05af7262b12f2a5ffc488bbf9a63d006d04f, (false, 0, 0), (false, 0, 0))]"
      ],
      "transaction": {
        "from": "0xf39fd6e51aad88f6f4ce6ab8827279cfffb92266",
        "to": "0x727625cf0fde96572c15c763a69266f542b59360",
        "gas": "0x5580a",
        "value": "0x0",
        "input": "0xdb6327dc000000000000000000000000000000000000000000000000000000000000002000000000000000000000000000000000000000000000000000000000000000010000000000000000000000000000000000000000000000000000000000000020000000000000000000000000000000000000000000000000304611b6affba76a00000000000000000000000000000000000000000000000000000000000000010000000000000000000000000000000000000000000000000000000000000140000000000000000000000000000000000000000000000000000000000000018000000000000000000000000000000000000000000000000000000000000000000000000000000000000000000000000000000000000000000000000000000000000000000000000000000000000000000000000000000000000000000000000000000000000000000000000000000000000000000000000000000000000000000000000000000000000000000000000000000000000000000000000000000000000000000000000000000000000000000000000000000000000000000000000000000000000000000000000000000000000000000000000000000000000000200000000000000000000000001459213733f023b55444487ee9385a8266fd0f08000000000000000000000000000000000000000000000000000000000000002000000000000000000000000096cb05af7262b12f2a5ffc488bbf9a63d006d04f",
        "nonce": "0x444e",
        "chainId": "0xaa36a7"
      },
      "additionalContracts": [],
      "isFixedGasLimit": false
    }
  ],
  "receipts": [
    {
      "status": "0x1",
      "cumulativeGasUsed": "0x3a76a",
      "logs": [
        {
          "address": "0x727625cf0fde96572c15c763a69266f542b59360",
          "topics": [
            "0x8d340f17e19058004c20453540862a9c62778504476f6756755cb33bcd6c38c2"
          ],
          "data": "0x000000000000000000000000000000000000000000000000304611b6affba76a0000000000000000000000000000000000000000000000000000000000000100000000000000000000000000000000000000000000000000000000000000000000000000000000000000000000000000000000000000000000000000000000000000000000000000000000000000000000000000000000000000000000000000000000000000000000000000000000000000000000000000000000000000000000000000000000000000000000000000000000000000000000000000000000000000000000000000000000000000000000000000000000000000000000000000000000000000000000000000000000000000000000000000000000000000002000000000000000000000000096cb05af7262b12f2a5ffc488bbf9a63d006d04f",
          "blockHash": "0x0eda6fdce254726406acfbe8ca81d3d5787f277169df591913f2b3881456fb11",
          "blockNumber": "0x8ba164",
          "blockTimestamp": "0x68bd1a17",
          "transactionHash": "0xefb639bc308cd487e63e732454bf884b7fd823b0963df0e8f108235c537019f3",
          "transactionIndex": "0x0",
          "logIndex": "0x0",
          "removed": false
        }
      ],
      "logsBloom": "0x00000000000000400000000000000000000000000000000000000000000000000000000000000000000000000000000000000000000000000004000000000000000000000000000000000000000000000000000000000000000000000000080000000000000000000100000000000000000000000000000000000000000000000000000000000000000000000000000000000000000000000000000000000000000000000000000000000000000000000000000000000000000000000000000000000000000000800000000000000000000000000000000000000000000000000000000000000000000000000000000000000000000000000100000000000000",
      "type": "0x2",
      "transactionHash": "0xefb639bc308cd487e63e732454bf884b7fd823b0963df0e8f108235c537019f3",
      "transactionIndex": "0x0",
      "blockHash": "0x0eda6fdce254726406acfbe8ca81d3d5787f277169df591913f2b3881456fb11",
      "blockNumber": "0x8ba164",
      "gasUsed": "0x3a76a",
      "effectiveGasPrice": "0x124174",
      "blobGasPrice": "0xbf3579c18762",
      "from": "0xf39fd6e51aad88f6f4ce6ab8827279cfffb92266",
      "to": "0x727625cf0fde96572c15c763a69266f542b59360",
      "contractAddress": null
    }
  ],
  "libraries": [],
  "pending": [],
  "returns": {},
  "timestamp": 1757223454757,
  "chain": 11155111,
  "commit": null
}