{
  "transactions": [
    {
      "hash": "0xb3c31f7a4f3c2a01a6339e9d832704a9bd5252496e856578b4a137181cce1612",
      "transactionType": "CALL",
      "contractName": null,
      "contractAddress": "0x26c39daf444c0653bac7611153481500754655e3",
      "function": "applyChainUpdates((uint64,bool,bytes,bytes,(bool,uint128,uint128),(bool,uint128,uint128))[])",
      "arguments": [
        "[(3478487238524512106, false, 0x0000000000000000000000000273c4b1e2682d0c317a1571aa16f060cf6c5192, 0x0000000000000000000000000756a4434da1bfe16e2e29fe0dc7f7b7df4745af, (false, 0, 0), (false, 0, 0))]"
      ],
      "transaction": {
        "from": "0x37ca3984f65beb9400669c94faeefaf1fc649964",
        "to": "0x26c39daf444c0653bac7611153481500754655e3",
        "gas": "0x15f77",
        "value": "0x0",
        "input": "0xdb6327dc000000000000000000000000000000000000000000000000000000000000002000000000000000000000000000000000000000000000000000000000000000010000000000000000000000000000000000000000000000000000000000000020000000000000000000000000000000000000000000000000304611b6affba76a00000000000000000000000000000000000000000000000000000000000000000000000000000000000000000000000000000000000000000000000000000140000000000000000000000000000000000000000000000000000000000000018000000000000000000000000000000000000000000000000000000000000000000000000000000000000000000000000000000000000000000000000000000000000000000000000000000000000000000000000000000000000000000000000000000000000000000000000000000000000000000000000000000000000000000000000000000000000000000000000000000000000000000000000000000000000000000000000000000000000000000000000000000000000000000000000000000000000000000000000000000000000000000000000000000000000000200000000000000000000000000273c4b1e2682d0c317a1571aa16f060cf6c519200000000000000000000000000000000000000000000000000000000000000200000000000000000000000000756a4434da1bfe16e2e29fe0dc7f7b7df4745af",
        "nonce": "0x31",
        "chainId": "0xaa36a7"
      },
      "additionalContracts": [],
      "isFixedGasLimit": false
    }
  ],
  "receipts": [
    {
      "status": "0x1",
      "cumulativeGasUsed": "0xcec1e6",
      "logs": [
        {
          "address": "0x26c39daf444c0653bac7611153481500754655e3",
          "topics": [
            "0x5204aec90a3c794d8e90fded8b46ae9c7c552803e7e832e0c1d358396d859916"
          ],
          "data": "0x000000000000000000000000000000000000000000000000304611b6affba76a",
          "blockHash": "0x0e2466423e24c79b4ef458d58c40e926ad5a0fd0646599b54f7d04f407ebc7ac",
          "blockNumber": "0x8bbbbb",
          "transactionHash": "0xb3c31f7a4f3c2a01a6339e9d832704a9bd5252496e856578b4a137181cce1612",
          "transactionIndex": "0x91",
          "logIndex": "0x9d",
          "removed": false
        }
      ],
      "logsBloom": "0x00000000000000000000000000000000000000000000000000000000000000000000000000000000000000000000000000000000000000000000000000000000000000000000000000000000000000000000000000000000000000000000000000000000000000000000000000000000000000000010200000000000000000000000000000000000000000000000000000000000000000000000000000000000000200000000000000000000000000000000000000000000000000000000080000000000040000000000000000000000040000000000000000000000000000000000000000000000000000000000000000000000000000000000000000000000",
      "type": "0x2",
      "transactionHash": "0xb3c31f7a4f3c2a01a6339e9d832704a9bd5252496e856578b4a137181cce1612",
      "transactionIndex": "0x91",
      "blockHash": "0x0e2466423e24c79b4ef458d58c40e926ad5a0fd0646599b54f7d04f407ebc7ac",
      "blockNumber": "0x8bbbbb",
      "gasUsed": "0xfe75",
      "effectiveGasPrice": "0x421689",
      "from": "0x37ca3984f65beb9400669c94faeefaf1fc649964",
      "to": "0x26c39daf444c0653bac7611153481500754655e3",
      "contractAddress": null
    }
  ],
  "libraries": [],
  "pending": [],
  "returns": {},
  "timestamp": 1757303917613,
  "chain": 11155111,
  "commit": null
}