{
  "transactions": [
    {
      "hash": "0x021c13384ca05d14e30a4080f7064798569b1d88e5a41391d1daed3aa5e8af9e",
      "transactionType": "CALL",
      "contractName": null,
      "contractAddress": "0x26c39daf444c0653bac7611153481500754655e3",
      "function": "applyChainUpdates((uint64,bool,bytes,bytes,(bool,uint128,uint128),(bool,uint128,uint128))[])",
      "arguments": [
        "[(3478487238524512106, true, 0x0000000000000000000000000273c4b1e2682d0c317a1571aa16f060cf6c5192, 0x0000000000000000000000000756a4434da1bfe16e2e29fe0dc7f7b7df4745af, (false, 0, 0), (false, 0, 0))]"
      ],
      "transaction": {
        "from": "0x37ca3984f65beb9400669c94faeefaf1fc649964",
        "to": "0x26c39daf444c0653bac7611153481500754655e3",
        "gas": "0x5580a",
        "value": "0x0",
        "input": "0xdb6327dc000000000000000000000000000000000000000000000000000000000000002000000000000000000000000000000000000000000000000000000000000000010000000000000000000000000000000000000000000000000000000000000020000000000000000000000000000000000000000000000000304611b6affba76a00000000000000000000000000000000000000000000000000000000000000010000000000000000000000000000000000000000000000000000000000000140000000000000000000000000000000000000000000000000000000000000018000000000000000000000000000000000000000000000000000000000000000000000000000000000000000000000000000000000000000000000000000000000000000000000000000000000000000000000000000000000000000000000000000000000000000000000000000000000000000000000000000000000000000000000000000000000000000000000000000000000000000000000000000000000000000000000000000000000000000000000000000000000000000000000000000000000000000000000000000000000000000000000000000000000000000200000000000000000000000000273c4b1e2682d0c317a1571aa16f060cf6c519200000000000000000000000000000000000000000000000000000000000000200000000000000000000000000756a4434da1bfe16e2e29fe0dc7f7b7df4745af",
        "nonce": "0x2f",
        "chainId": "0xaa36a7"
      },
      "additionalContracts": [],
      "isFixedGasLimit": false
    }
  ],
  "receipts": [
    {
      "status": "0x1",
      "cumulativeGasUsed": "0x8fd263",
      "logs": [
        {
          "address": "0x26c39daf444c0653bac7611153481500754655e3",
          "topics": [
            "0x8d340f17e19058004c20453540862a9c62778504476f6756755cb33bcd6c38c2"
          ],
          "data": "0x000000000000000000000000000000000000000000000000304611b6affba76a000000000000000000000000000000000000000000000000000000000000010000000000000000000000000000000000000000000000000000000000000000000000000000000000000000000000000000000000000000000000000000000000000000000000000000000000000000000000000000000000000000000000000000000000000000000000000000000000000000000000000000000000000000000000000000000000000000000000000000000000000000000000000000000000000000000000000000000000000000000000000000000000000000000000000000000000000000000000000000000000000000000000000000000000000000200000000000000000000000000756a4434da1bfe16e2e29fe0dc7f7b7df4745af",
          "blockHash": "0x19656d3504cacfca7c98d735fd4a67f568c21988412e23a52c10a1e89a7a737c",
          "blockNumber": "0x8bbaf7",
          "transactionHash": "0x021c13384ca05d14e30a4080f7064798569b1d88e5a41391d1daed3aa5e8af9e",
          "transactionIndex": "0x45",
          "logIndex": "0x70",
          "removed": false
        }
      ],
      "logsBloom": "0x00000000000000400000000000000000000000000000000000000000000000000000000000000000000000000000000000000000000000000004000000000000000000000000000000000000000000000000000000000000000000000000000000000000000000000000000000000000000000000010200000000000000000000000000000000000000000000000000000000000000000000000000000000000000000000000000000000000000000000000000000000000000000000000000000000000000000000000000000000000040000000000000000000000000000000000000000000000000000000000000000000000000000000100000000000000",
      "type": "0x2",
      "transactionHash": "0x021c13384ca05d14e30a4080f7064798569b1d88e5a41391d1daed3aa5e8af9e",
      "transactionIndex": "0x45",
      "blockHash": "0x19656d3504cacfca7c98d735fd4a67f568c21988412e23a52c10a1e89a7a737c",
      "blockNumber": "0x8bbaf7",
      "gasUsed": "0x3a76a",
      "effectiveGasPrice": "0x4468d1",
      "from": "0x37ca3984f65beb9400669c94faeefaf1fc649964",
      "to": "0x26c39daf444c0653bac7611153481500754655e3",
      "contractAddress": null
    }
  ],
  "libraries": [],
  "pending": [],
  "returns": {},
  "timestamp": 1757301541456,
  "chain": 11155111,
  "commit": null
}