{
  "transactions": [
    {
      "hash": "0xf84caa7632890b1799c595f5a59c03aa5072040aea0bfa87932f929ad898b362",
      "transactionType": "CALL",
      "contractName": null,
      "contractAddress": "0x0756a4434da1bfe16e2e29fe0dc7f7b7df4745af",
      "function": "applyChainUpdates((uint64,bool,bytes,bytes,(bool,uint128,uint128),(bool,uint128,uint128))[])",
      "arguments": [
        "[(16015286601757825753, true, 0x0000000000000000000000001a596ef4c034a66cba457c87260b119988cd4fe7, 0x00000000000000000000000026c39daf444c0653bac7611153481500754655e3, (false, 0, 0), (false, 0, 0))]"
      ],
      "transaction": {
        "from": "0x37ca3984f65beb9400669c94faeefaf1fc649964",
        "to": "0x0756a4434da1bfe16e2e29fe0dc7f7b7df4745af",
        "gas": "0x4cf8e",
        "value": "0x0",
        "input": "0xdb6327dc000000000000000000000000000000000000000000000000000000000000002000000000000000000000000000000000000000000000000000000000000000010000000000000000000000000000000000000000000000000000000000000020000000000000000000000000000000000000000000000000de41ba4fc9d91ad900000000000000000000000000000000000000000000000000000000000000010000000000000000000000000000000000000000000000000000000000000140000000000000000000000000000000000000000000000000000000000000018000000000000000000000000000000000000000000000000000000000000000000000000000000000000000000000000000000000000000000000000000000000000000000000000000000000000000000000000000000000000000000000000000000000000000000000000000000000000000000000000000000000000000000000000000000000000000000000000000000000000000000000000000000000000000000000000000000000000000000000000000000000000000000000000000000000000000000000000000000000000000000000000000000000000000200000000000000000000000001a596ef4c034a66cba457c87260b119988cd4fe7000000000000000000000000000000000000000000000000000000000000002000000000000000000000000026c39daf444c0653bac7611153481500754655e3",
        "nonce": "0xd",
        "chainId": "0x66eee"
      },
      "additionalContracts": [],
      "isFixedGasLimit": false
    }
  ],
  "receipts": [
    {
      "status": "0x1",
      "cumulativeGasUsed": "0x7f0c5",
      "logs": [
        {
          "address": "0x0756a4434da1bfe16e2e29fe0dc7f7b7df4745af",
          "topics": [
            "0x8d340f17e19058004c20453540862a9c62778504476f6756755cb33bcd6c38c2"
          ],
          "data": "0x000000000000000000000000000000000000000000000000de41ba4fc9d91ad90000000000000000000000000000000000000000000000000000000000000100000000000000000000000000000000000000000000000000000000000000000000000000000000000000000000000000000000000000000000000000000000000000000000000000000000000000000000000000000000000000000000000000000000000000000000000000000000000000000000000000000000000000000000000000000000000000000000000000000000000000000000000000000000000000000000000000000000000000000000000000000000000000000000000000000000000000000000000000000000000000000000000000000000000000002000000000000000000000000026c39daf444c0653bac7611153481500754655e3",
          "blockHash": "0x9e1ecbb577efb848fdf24366a3f31690c1bf08b02f3052a5d17f95388aee4169",
          "blockNumber": "0xb727f92",
          "transactionHash": "0xf84caa7632890b1799c595f5a59c03aa5072040aea0bfa87932f929ad898b362",
          "transactionIndex": "0x4",
          "logIndex": "0x8",
          "removed": false
        }
      ],
      "logsBloom": "0x00000000000000400000000000000000000000000000000000000000000000800000000000000000000000000000000000000000000000000004004000000000000000000000000000000000000000000000000000000000000000000000000000000000000000000000000000000000000000000000000000000000000000000000000000000000000000000000000000000000000000000000000000000000000000000000000000000000000000000000000000000000000000000000000000000000000000000000000000000000000000000000000000000000000000000000000000000000000000000000000000000000000000800100000000000000",
      "type": "0x2",
      "transactionHash": "0xf84caa7632890b1799c595f5a59c03aa5072040aea0bfa87932f929ad898b362",
      "transactionIndex": "0x4",
      "blockHash": "0x9e1ecbb577efb848fdf24366a3f31690c1bf08b02f3052a5d17f95388aee4169",
      "blockNumber": "0xb727f92",
      "gasUsed": "0x3a75e",
      "effectiveGasPrice": "0x5f5e100",
      "from": "0x37ca3984f65beb9400669c94faeefaf1fc649964",
      "to": "0x0756a4434da1bfe16e2e29fe0dc7f7b7df4745af",
      "contractAddress": null,
      "gasUsedForL1": "0x0",
      "l1BlockNumber": "0x8bbd9a",
      "timeboosted": false
    }
  ],
  "libraries": [],
  "pending": [],
  "returns": {},
  "timestamp": 1757309787919,
  "chain": 421614,
  "commit": null
}