{
  "transactions": [
    {
      "hash": "0xba40669b541ff8e3c99d3d189f0fa5379f3fecd9a0cca9d180496cd681648cac",
      "transactionType": "CALL",
      "contractName": null,
      "contractAddress": "0x0756a4434da1bfe16e2e29fe0dc7f7b7df4745af",
      "function": "applyChainUpdates((uint64,bool,bytes,bytes,(bool,uint128,uint128),(bool,uint128,uint128))[])",
      "arguments": [
        "[(16015286601757825753, false, 0x00000000000000000000000026c39daf444c0653bac7611153481500754655e3, 0x0000000000000000000000001a596ef4c034a66cba457c87260b119988cd4fe7, (false, 0, 0), (false, 0, 0))]"
      ],
      "transaction": {
        "from": "0x37ca3984f65beb9400669c94faeefaf1fc649964",
        "to": "0x0756a4434da1bfe16e2e29fe0dc7f7b7df4745af",
        "gas": "0x1a18b",
        "value": "0x0",
        "input": "0xdb6327dc000000000000000000000000000000000000000000000000000000000000002000000000000000000000000000000000000000000000000000000000000000010000000000000000000000000000000000000000000000000000000000000020000000000000000000000000000000000000000000000000de41ba4fc9d91ad9000000000000000000000000000000000000000000000000000000000000000000000000000000000000000000000000000000000000000000000000000001400000000000000000000000000000000000000000000000000000000000000180000000000000000000000000000000000000000000000000000000000000000000000000000000000000000000000000000000000000000000000000000000000000000000000000000000000000000000000000000000000000000000000000000000000000000000000000000000000000000000000000000000000000000000000000000000000000000000000000000000000000000000000000000000000000000000000000000000000000000000000000000000000000000000000000000000000000000000000000000000000000000000000000000000000000002000000000000000000000000026c39daf444c0653bac7611153481500754655e300000000000000000000000000000000000000000000000000000000000000200000000000000000000000001a596ef4c034a66cba457c87260b119988cd4fe7",
        "nonce": "0xe",
        "chainId": "0x66eee"
      },
      "additionalContracts": [],
      "isFixedGasLimit": false
    }
  ],
  "receipts": [
    {
      "status": "0x1",
      "cumulativeGasUsed": "0x196d2",
      "logs": [
        {
          "address": "0x0756a4434da1bfe16e2e29fe0dc7f7b7df4745af",
          "topics": [
            "0x5204aec90a3c794d8e90fded8b46ae9c7c552803e7e832e0c1d358396d859916"
          ],
          "data": "0x000000000000000000000000000000000000000000000000de41ba4fc9d91ad9",
          "blockHash": "0x36e08e6aa7513a47e7b300b72d8df54deeab4d4b681ba8a140e442edbab7d0ad",
          "blockNumber": "0xb733534",
          "transactionHash": "0xba40669b541ff8e3c99d3d189f0fa5379f3fecd9a0cca9d180496cd681648cac",
          "transactionIndex": "0x2",
          "logIndex": "0x2",
          "removed": false
        }
      ],
      "logsBloom": "0x00000000000000000000000000000000000000000000000000000000000000800000000000000000000000000000000000000000000000000000004000000000000000000000000000000000000000000000000000000000000000000000000000000000000000000000000000000000000000000000000000000000000000000000000000000000000000000000000000000000000000000000000000000000000200000000000000000000000000000000000000000000000000000000080000000000040000000000000000000000000000000000000000000000000000000000000000000000000000000000000000000000000000800000000000000000",
      "type": "0x2",
      "transactionHash": "0xba40669b541ff8e3c99d3d189f0fa5379f3fecd9a0cca9d180496cd681648cac",
      "transactionIndex": "0x2",
      "blockHash": "0x36e08e6aa7513a47e7b300b72d8df54deeab4d4b681ba8a140e442edbab7d0ad",
      "blockNumber": "0xb733534",
      "gasUsed": "0xff59",
      "effectiveGasPrice": "0x5f5e100",
      "from": "0x37ca3984f65beb9400669c94faeefaf1fc649964",
      "to": "0x0756a4434da1bfe16e2e29fe0dc7f7b7df4745af",
      "contractAddress": null,
      "gasUsedForL1": "0xed",
      "l1BlockNumber": "0x8bc15d",
      "timeboosted": false
    }
  ],
  "libraries": [],
  "pending": [],
  "returns": {},
  "timestamp": 1757321730210,
  "chain": 421614,
  "commit": null
}