{
  "transactions": [
    {
      "hash": "0xf951e7050bf8e8b6af2384cdd70de62240c086be709081477ec233b01163cf31",
      "transactionType": "CALL",
      "contractName": null,
      "contractAddress": "0x96cb05af7262b12f2a5ffc488bbf9a63d006d04f",
      "function": "applyChainUpdates((uint64,bool,bytes,bytes,(bool,uint128,uint128),(bool,uint128,uint128))[])",
      "arguments": [
        "[(16015286601757825753, true, 0x000000000000000000000000bcdf4560487a86b97b923d2d5efa16689061b02e, 0x000000000000000000000000727625cf0fde96572c15c763a69266f542b59360, (false, 0, 0), (false, 0, 0))]"
      ],
      "transaction": {
        "from": "0xf39fd6e51aad88f6f4ce6ab8827279cfffb92266",
        "to": "0x96cb05af7262b12f2a5ffc488bbf9a63d006d04f",
        "gas": "0x4c009",
        "value": "0x0",
        "input": "0xdb6327dc000000000000000000000000000000000000000000000000000000000000002000000000000000000000000000000000000000000000000000000000000000010000000000000000000000000000000000000000000000000000000000000020000000000000000000000000000000000000000000000000de41ba4fc9d91ad90000000000000000000000000000000000000000000000000000000000000001000000000000000000000000000000000000000000000000000000000000014000000000000000000000000000000000000000000000000000000000000001800000000000000000000000000000000000000000000000000000000000000000000000000000000000000000000000000000000000000000000000000000000000000000000000000000000000000000000000000000000000000000000000000000000000000000000000000000000000000000000000000000000000000000000000000000000000000000000000000000000000000000000000000000000000000000000000000000000000000000000000000000000000000000000000000000000000000000000000000000000000000000000000000000000000000020000000000000000000000000bcdf4560487a86b97b923d2d5efa16689061b02e0000000000000000000000000000000000000000000000000000000000000020000000000000000000000000727625cf0fde96572c15c763a69266f542b59360",
        "nonce": "0x8e9",
        "chainId": "0x66eee"
      },
      "additionalContracts": [],
      "isFixedGasLimit": false
    }
  ],
  "receipts": [
    {
      "status": "0x1",
      "cumulativeGasUsed": "0x3a76a",
      "logs": [
        {
          "address": "0x96cb05af7262b12f2a5ffc488bbf9a63d006d04f",
          "topics": [
            "0x8d340f17e19058004c20453540862a9c62778504476f6756755cb33bcd6c38c2"
          ],
          "data": "0x000000000000000000000000000000000000000000000000de41ba4fc9d91ad900000000000000000000000000000000000000000000000000000000000001000000000000000000000000000000000000000000000000000000000000000000000000000000000000000000000000000000000000000000000000000000000000000000000000000000000000000000000000000000000000000000000000000000000000000000000000000000000000000000000000000000000000000000000000000000000000000000000000000000000000000000000000000000000000000000000000000000000000000000000000000000000000000000000000000000000000000000000000000000000000000000000000000000000000000020000000000000000000000000727625cf0fde96572c15c763a69266f542b59360",
          "blockHash": "0xc6ef757c162f826a67031404499fa815c1d9820084ecae0e081add8756130e68",
          "blockNumber": "0xb6cfffc",
          "blockTimestamp": "0x68bd06b2",
          "transactionHash": "0xf951e7050bf8e8b6af2384cdd70de62240c086be709081477ec233b01163cf31",
          "transactionIndex": "0x0",
          "logIndex": "0x0",
          "removed": false
        }
      ],
      "logsBloom": "0x00000000000000400000000000000000000000000000000000000000000000000000000000000000000000000000000000000000000000000004000000000000010000000000000000000000000000000000000000000000000000000000000000000000000000000000000000000000000000000000000000000000000000000000020000000000000000000000000000000000000000000000000000000000000000000000000000000001000000000000000000000000000000000000000000000000000000000000000000000000000000000000000000000000000000000000000000000000000000000000000000000000000000000100000000000000",
      "type": "0x2",
      "transactionHash": "0xf951e7050bf8e8b6af2384cdd70de62240c086be709081477ec233b01163cf31",
      "transactionIndex": "0x0",
      "blockHash": "0xc6ef757c162f826a67031404499fa815c1d9820084ecae0e081add8756130e68",
      "blockNumber": "0xb6cfffc",
      "gasUsed": "0x3a76a",
      "effectiveGasPrice": "0x1cac479",
      "blobGasPrice": "0x1",
      "from": "0xf39fd6e51aad88f6f4ce6ab8827279cfffb92266",
      "to": "0x96cb05af7262b12f2a5ffc488bbf9a63d006d04f",
      "contractAddress": null
    }
  ],
  "libraries": [],
  "pending": [],
  "returns": {},
  "timestamp": 1757218483948,
  "chain": 421614,
  "commit": null
}