{
  "transactions": [
    {
      "hash": "0x82ee1f34577f6a9b3c3297ec1d3afd70dc981828405dd0db035927ef02e88dbf",
      "transactionType": "CALL",
      "contractName": null,
      "contractAddress": "0x0756a4434da1bfe16e2e29fe0dc7f7b7df4745af",
      "function": "applyChainUpdates((uint64,bool,bytes,bytes,(bool,uint128,uint128),(bool,uint128,uint128))[])",
      "arguments": [
        "[(16015286601757825753, true, 0x000000000000000000000000bcdf4560487a86b97b923d2d5efa16689061b02e, 0x000000000000000000000000727625cf0fde96572c15c763a69266f542b59360, (false, 0, 0), (false, 0, 0))]"
      ],
      "transaction": {
        "from": "0x37ca3984f65beb9400669c94faeefaf1fc649964",
        "to": "0x0756a4434da1bfe16e2e29fe0dc7f7b7df4745af",
        "gas": "0x4cf9e",
        "value": "0x0",
        "input": "0xdb6327dc000000000000000000000000000000000000000000000000000000000000002000000000000000000000000000000000000000000000000000000000000000010000000000000000000000000000000000000000000000000000000000000020000000000000000000000000000000000000000000000000de41ba4fc9d91ad90000000000000000000000000000000000000000000000000000000000000001000000000000000000000000000000000000000000000000000000000000014000000000000000000000000000000000000000000000000000000000000001800000000000000000000000000000000000000000000000000000000000000000000000000000000000000000000000000000000000000000000000000000000000000000000000000000000000000000000000000000000000000000000000000000000000000000000000000000000000000000000000000000000000000000000000000000000000000000000000000000000000000000000000000000000000000000000000000000000000000000000000000000000000000000000000000000000000000000000000000000000000000000000000000000000000000020000000000000000000000000bcdf4560487a86b97b923d2d5efa16689061b02e0000000000000000000000000000000000000000000000000000000000000020000000000000000000000000727625cf0fde96572c15c763a69266f542b59360",
        "nonce": "0xb",
        "chainId": "0x66eee"
      },
      "additionalContracts": [],
      "isFixedGasLimit": false
    }
  ],
  "receipts": [
    {
      "status": "0x1",
      "cumulativeGasUsed": "0x15ca06",
      "logs": [
        {
          "address": "0x0756a4434da1bfe16e2e29fe0dc7f7b7df4745af",
          "topics": [
            "0x8d340f17e19058004c20453540862a9c62778504476f6756755cb33bcd6c38c2"
          ],
          "data": "0x000000000000000000000000000000000000000000000000de41ba4fc9d91ad900000000000000000000000000000000000000000000000000000000000001000000000000000000000000000000000000000000000000000000000000000000000000000000000000000000000000000000000000000000000000000000000000000000000000000000000000000000000000000000000000000000000000000000000000000000000000000000000000000000000000000000000000000000000000000000000000000000000000000000000000000000000000000000000000000000000000000000000000000000000000000000000000000000000000000000000000000000000000000000000000000000000000000000000000000020000000000000000000000000727625cf0fde96572c15c763a69266f542b59360",
          "blockHash": "0x4369be87ceb8abefe558d12303fc474ec1304ebda5120457b8740b13369a87d8",
          "blockNumber": "0xb720507",
          "transactionHash": "0x82ee1f34577f6a9b3c3297ec1d3afd70dc981828405dd0db035927ef02e88dbf",
          "transactionIndex": "0x5",
          "logIndex": "0x19",
          "removed": false
        }
      ],
      "logsBloom": "0x00000000000000400000000000000000000000000000000000000000000000800000000000000000000000000000000000000000000000000004004000000000000000000000000000000000000000000000000000000000000000000000000000000000000000000000000000000000000000000000000000000000000000000000000000000000000000000000000000000000000000000000000000000000000000000000000000000000000000000000000000000000000000000000000000000000000000000000000000000000000000000000000000000000000000000000000000000000000000000000000000000000000000800100000000000000",
      "type": "0x2",
      "transactionHash": "0x82ee1f34577f6a9b3c3297ec1d3afd70dc981828405dd0db035927ef02e88dbf",
      "transactionIndex": "0x5",
      "blockHash": "0x4369be87ceb8abefe558d12303fc474ec1304ebda5120457b8740b13369a87d8",
      "blockNumber": "0xb720507",
      "gasUsed": "0x3a76a",
      "effectiveGasPrice": "0x5f5e100",
      "from": "0x37ca3984f65beb9400669c94faeefaf1fc649964",
      "to": "0x0756a4434da1bfe16e2e29fe0dc7f7b7df4745af",
      "contractAddress": null,
      "gasUsedForL1": "0x0",
      "l1BlockNumber": "0x8bbb03",
      "timeboosted": false
    }
  ],
  "libraries": [],
  "pending": [],
  "returns": {},
  "timestamp": 1757301703951,
  "chain": 421614,
  "commit": null
}