{
  "transactions": [
    {
      "hash": "0x6e80824c2d9a715c74eb0f59efc20d6e4ecff27fce08721b5499d57e4a714dc3",
      "transactionType": "CALL",
      "contractName": null,
      "contractAddress": "0x0756a4434da1bfe16e2e29fe0dc7f7b7df4745af",
      "function": "applyChainUpdates((uint64,bool,bytes,bytes,(bool,uint128,uint128),(bool,uint128,uint128))[])",
      "arguments": [
        "[(16015286601757825753, false, 0x0000000000000000000000001a596ef4c034a66cba457c87260b119988cd4fe7, 0x00000000000000000000000026c39daf444c0653bac7611153481500754655e3, (false, 0, 0), (false, 0, 0))]"
      ],
      "transaction": {
        "from": "0x37ca3984f65beb9400669c94faeefaf1fc649964",
        "to": "0x0756a4434da1bfe16e2e29fe0dc7f7b7df4745af",
        "gas": "0x1a00d",
        "value": "0x0",
        "input": "0xdb6327dc000000000000000000000000000000000000000000000000000000000000002000000000000000000000000000000000000000000000000000000000000000010000000000000000000000000000000000000000000000000000000000000020000000000000000000000000000000000000000000000000de41ba4fc9d91ad900000000000000000000000000000000000000000000000000000000000000000000000000000000000000000000000000000000000000000000000000000140000000000000000000000000000000000000000000000000000000000000018000000000000000000000000000000000000000000000000000000000000000000000000000000000000000000000000000000000000000000000000000000000000000000000000000000000000000000000000000000000000000000000000000000000000000000000000000000000000000000000000000000000000000000000000000000000000000000000000000000000000000000000000000000000000000000000000000000000000000000000000000000000000000000000000000000000000000000000000000000000000000000000000000000000000000200000000000000000000000001a596ef4c034a66cba457c87260b119988cd4fe7000000000000000000000000000000000000000000000000000000000000002000000000000000000000000026c39daf444c0653bac7611153481500754655e3",
        "nonce": "0xc",
        "chainId": "0x66eee"
      },
      "additionalContracts": [],
      "isFixedGasLimit": false
    }
  ],
  "receipts": [
    {
      "status": "0x1",
      "cumulativeGasUsed": "0xe84c5",
      "logs": [
        {
          "address": "0x0756a4434da1bfe16e2e29fe0dc7f7b7df4745af",
          "topics": [
            "0x5204aec90a3c794d8e90fded8b46ae9c7c552803e7e832e0c1d358396d859916"
          ],
          "data": "0x000000000000000000000000000000000000000000000000de41ba4fc9d91ad9",
          "blockHash": "0xd7ad08cc75884bc314ad3f0f876b9c03b0dc38dc1bc4786ec10e996e4c1a6640",
          "blockNumber": "0xb727d4e",
          "transactionHash": "0x6e80824c2d9a715c74eb0f59efc20d6e4ecff27fce08721b5499d57e4a714dc3",
          "transactionIndex": "0x6",
          "logIndex": "0x11",
          "removed": false
        }
      ],
      "logsBloom": "0x00000000000000000000000000000000000000000000000000000000000000800000000000000000000000000000000000000000000000000000004000000000000000000000000000000000000000000000000000000000000000000000000000000000000000000000000000000000000000000000000000000000000000000000000000000000000000000000000000000000000000000000000000000000000200000000000000000000000000000000000000000000000000000000080000000000040000000000000000000000000000000000000000000000000000000000000000000000000000000000000000000000000000800000000000000000",
      "type": "0x2",
      "transactionHash": "0x6e80824c2d9a715c74eb0f59efc20d6e4ecff27fce08721b5499d57e4a714dc3",
      "transactionIndex": "0x6",
      "blockHash": "0xd7ad08cc75884bc314ad3f0f876b9c03b0dc38dc1bc4786ec10e996e4c1a6640",
      "blockNumber": "0xb727d4e",
      "gasUsed": "0xfe6c",
      "effectiveGasPrice": "0x5f5e100",
      "from": "0x37ca3984f65beb9400669c94faeefaf1fc649964",
      "to": "0x0756a4434da1bfe16e2e29fe0dc7f7b7df4745af",
      "contractAddress": null,
      "gasUsedForL1": "0x0",
      "l1BlockNumber": "0x8bbd8e",
      "timeboosted": false
    }
  ],
  "libraries": [],
  "pending": [],
  "returns": {},
  "timestamp": 1757309643124,
  "chain": 421614,
  "commit": null
}