{
  "transactions": [
    {
      "hash": "0x3c07ae95574d19ea02c7aeba2b880142cf5636725c6156228c2e6d9e2ccee7e3",
      "transactionType": "CALL",
      "contractName": null,
      "contractAddress": "0x0756a4434da1bfe16e2e29fe0dc7f7b7df4745af",
      "function": "applyChainUpdates((uint64,bool,bytes,bytes,(bool,uint128,uint128),(bool,uint128,uint128))[])",
      "arguments": [
        "[(16015286601757825753, true, 0x00000000000000000000000026c39daf444c0653bac7611153481500754655e3, 0x0000000000000000000000001a596ef4c034a66cba457c87260b119988cd4fe7, (false, 0, 0), (false, 0, 0))]"
      ],
      "transaction": {
        "from": "0x37ca3984f65beb9400669c94faeefaf1fc649964",
        "to": "0x0756a4434da1bfe16e2e29fe0dc7f7b7df4745af",
        "gas": "0x4d10f",
        "value": "0x0",
        "input": "0xdb6327dc000000000000000000000000000000000000000000000000000000000000002000000000000000000000000000000000000000000000000000000000000000010000000000000000000000000000000000000000000000000000000000000020000000000000000000000000000000000000000000000000de41ba4fc9d91ad9000000000000000000000000000000000000000000000000000000000000000100000000000000000000000000000000000000000000000000000000000001400000000000000000000000000000000000000000000000000000000000000180000000000000000000000000000000000000000000000000000000000000000000000000000000000000000000000000000000000000000000000000000000000000000000000000000000000000000000000000000000000000000000000000000000000000000000000000000000000000000000000000000000000000000000000000000000000000000000000000000000000000000000000000000000000000000000000000000000000000000000000000000000000000000000000000000000000000000000000000000000000000000000000000000000000000002000000000000000000000000026c39daf444c0653bac7611153481500754655e300000000000000000000000000000000000000000000000000000000000000200000000000000000000000001a596ef4c034a66cba457c87260b119988cd4fe7",
        "nonce": "0xf",
        "chainId": "0x66eee"
      },
      "additionalContracts": [],
      "isFixedGasLimit": false
    }
  ],
  "receipts": [
    {
      "status": "0x1",
      "cumulativeGasUsed": "0x8966e",
      "logs": [
        {
          "address": "0x0756a4434da1bfe16e2e29fe0dc7f7b7df4745af",
          "topics": [
            "0x8d340f17e19058004c20453540862a9c62778504476f6756755cb33bcd6c38c2"
          ],
          "data": "0x000000000000000000000000000000000000000000000000de41ba4fc9d91ad9000000000000000000000000000000000000000000000000000000000000010000000000000000000000000000000000000000000000000000000000000000000000000000000000000000000000000000000000000000000000000000000000000000000000000000000000000000000000000000000000000000000000000000000000000000000000000000000000000000000000000000000000000000000000000000000000000000000000000000000000000000000000000000000000000000000000000000000000000000000000000000000000000000000000000000000000000000000000000000000000000000000000000000000000000000200000000000000000000000001a596ef4c034a66cba457c87260b119988cd4fe7",
          "blockHash": "0xcfa23af8f5061797bffa43820a9e794384592ef7177d142fdd09f9ba2cb873dc",
          "blockNumber": "0xb73376d",
          "transactionHash": "0x3c07ae95574d19ea02c7aeba2b880142cf5636725c6156228c2e6d9e2ccee7e3",
          "transactionIndex": "0x4",
          "logIndex": "0x8",
          "removed": false
        }
      ],
      "logsBloom": "0x00000000000000400000000000000000000000000000000000000000000000800000000000000000000000000000000000000000000000000004004000000000000000000000000000000000000000000000000000000000000000000000000000000000000000000000000000000000000000000000000000000000000000000000000000000000000000000000000000000000000000000000000000000000000000000000000000000000000000000000000000000000000000000000000000000000000000000000000000000000000000000000000000000000000000000000000000000000000000000000000000000000000000800100000000000000",
      "type": "0x2",
      "transactionHash": "0x3c07ae95574d19ea02c7aeba2b880142cf5636725c6156228c2e6d9e2ccee7e3",
      "transactionIndex": "0x4",
      "blockHash": "0xcfa23af8f5061797bffa43820a9e794384592ef7177d142fdd09f9ba2cb873dc",
      "blockNumber": "0xb73376d",
      "gasUsed": "0x3a853",
      "effectiveGasPrice": "0x5f5e100",
      "from": "0x37ca3984f65beb9400669c94faeefaf1fc649964",
      "to": "0x0756a4434da1bfe16e2e29fe0dc7f7b7df4745af",
      "contractAddress": null,
      "gasUsedForL1": "0xf5",
      "l1BlockNumber": "0x8bc169",
      "timeboosted": false
    }
  ],
  "libraries": [],
  "pending": [],
  "returns": {},
  "timestamp": 1757321884441,
  "chain": 421614,
  "commit": null
}