{
  "transactions": [
    {
      "hash": "0x4b4db83f751e78f69d346b537f47b4c6bfac699e7504162af9c3fd0c78ad7030",
      "transactionType": "CALL",
      "contractName": null,
      "contractAddress": "0x779877a7b0d9e8603169ddbd7836e478b4624789",
      "function": "approve(address,uint256)",
      "arguments": [
        "0x0BF3dE8c5D3e8A2B34D2BEeB17ABfCeBaf363A59",
        "33025203743816576"
      ],
      "transaction": {
        "from": "0x37ca3984f65beb9400669c94faeefaf1fc649964",
        "to": "0x779877a7b0d9e8603169ddbd7836e478b4624789",
        "gas": "0x1081f",
        "value": "0x0",
        "input": "0x095ea7b30000000000000000000000000bf3de8c5d3e8a2b34d2beeb17abfcebaf363a590000000000000000000000000000000000000000000000000075543f71c8fb80",
        "nonce": "0x38",
        "chainId": "0xaa36a7"
      },
      "additionalContracts": [],
      "isFixedGasLimit": false
    },
    {
      "hash": "0x8c4b9211274c2ea8ae1e99dadb87a7d50d91d3b9fbb2a4922fb03902e8909ff7",
      "transactionType": "CALL",
      "contractName": null,
      "contractAddress": "0x1a596ef4c034a66cba457c87260b119988cd4fe7",
      "function": "approve(address,uint256)",
      "arguments": [
        "0x0BF3dE8c5D3e8A2B34D2BEeB17ABfCeBaf363A59",
        "1000000000000000"
      ],
      "transaction": {
        "from": "0x37ca3984f65beb9400669c94faeefaf1fc649964",
        "to": "0x1a596ef4c034a66cba457c87260b119988cd4fe7",
        "gas": "0xfa75",
        "value": "0x0",
        "input": "0x095ea7b30000000000000000000000000bf3de8c5d3e8a2b34d2beeb17abfcebaf363a5900000000000000000000000000000000000000000000000000038d7ea4c68000",
        "nonce": "0x39",
        "chainId": "0xaa36a7"
      },
      "additionalContracts": [],
      "isFixedGasLimit": false
    },
    {
      "hash": "0xc984bb38a73e08cab88609f4dc1007fad30cf1f3753016ac8bd1e94626161c49",
      "transactionType": "CALL",
      "contractName": null,
      "contractAddress": "0x0bf3de8c5d3e8a2b34d2beeb17abfcebaf363a59",
      "function": "ccipSend(uint64,(bytes,bytes,(address,uint256)[],address,bytes))",
      "arguments": [
        "3478487238524512106",
        "(0x00000000000000000000000037ca3984f65beb9400669c94faeefaf1fc649964, 0x, [(0x1a596EF4c034A66CBA457C87260b119988cd4Fe7, 1000000000000000)], 0x779877A7B0D9E8603169DdbD7836e478b4624789, 0x181dcf100000000000000000000000000000000000000000000000000000000000061a800000000000000000000000000000000000000000000000000000000000000000)"
      ],
      "transaction": {
        "from": "0x37ca3984f65beb9400669c94faeefaf1fc649964",
        "to": "0x0bf3de8c5d3e8a2b34d2beeb17abfcebaf363a59",
        "gas": "0x49116",
        "value": "0x0",
        "input": "0x96f4e9f9000000000000000000000000000000000000000000000000304611b6affba76a000000000000000000000000000000000000000000000000000000000000004000000000000000000000000000000000000000000000000000000000000000a000000000000000000000000000000000000000000000000000000000000000e00000000000000000000000000000000000000000000000000000000000000100000000000000000000000000779877a7b0d9e8603169ddbd7836e478b46247890000000000000000000000000000000000000000000000000000000000000160000000000000000000000000000000000000000000000000000000000000002000000000000000000000000037ca3984f65beb9400669c94faeefaf1fc649964000000000000000000000000000000000000000000000000000000000000000000000000000000000000000000000000000000000000000000000000000000010000000000000000000000001a596ef4c034a66cba457c87260b119988cd4fe700000000000000000000000000000000000000000000000000038d7ea4c680000000000000000000000000000000000000000000000000000000000000000044181dcf100000000000000000000000000000000000000000000000000000000000061a80000000000000000000000000000000000000000000000000000000000000000000000000000000000000000000000000000000000000000000000000",
        "nonce": "0x3a",
        "chainId": "0xaa36a7"
      },
      "additionalContracts": [],
      "isFixedGasLimit": false
    }
  ],
  "receipts": [
    {
      "status": "0x1",
      "cumulativeGasUsed": "0xce154f",
      "logs": [
        {
          "address": "0x779877a7b0d9e8603169ddbd7836e478b4624789",
          "topics": [
            "0x8c5be1e5ebec7d5bd14f71427d1e84f3dd0314c0f7b2291e5b200ac8c7c3b925",
            "0x00000000000000000000000037ca3984f65beb9400669c94faeefaf1fc649964",
            "0x0000000000000000000000000bf3de8c5d3e8a2b34d2beeb17abfcebaf363a59"
          ],
          "data": "0x0000000000000000000000000000000000000000000000000075543f71c8fb80",
          "blockHash": "0x9e408b88bfd3e6194234a76ca3ba84af91bfd3dca0a3f78e691fa3cb895b0cc4",
          "blockNumber": "0x8bbed6",
          "transactionHash": "0x4b4db83f751e78f69d346b537f47b4c6bfac699e7504162af9c3fd0c78ad7030",
          "transactionIndex": "0x53",
          "logIndex": "0x71",
          "removed": false
        }
      ],
      "logsBloom": "0x00000004000040000000000000000000000000000000000000000000000000000000000000000000000000200000000000000000000000000000000000200008000000000000000000000000000000000000000000000000000000000000000000000000000100000000000000000000000000000000000000000000000000000000000000000000000000000000800000000000000000000000000000000000020000000000080000000000000000000000000000000000000000000000000000000000000000000000000000400000000000000000000100000000000000000010000000000000000000000000000000000000000000000000000000000000",
      "type": "0x2",
      "transactionHash": "0x4b4db83f751e78f69d346b537f47b4c6bfac699e7504162af9c3fd0c78ad7030",
      "transactionIndex": "0x53",
      "blockHash": "0x9e408b88bfd3e6194234a76ca3ba84af91bfd3dca0a3f78e691fa3cb895b0cc4",
      "blockNumber": "0x8bbed6",
      "gasUsed": "0xb499",
      "effectiveGasPrice": "0x2bb5ce",
      "from": "0x37ca3984f65beb9400669c94faeefaf1fc649964",
      "to": "0x779877a7b0d9e8603169ddbd7836e478b4624789",
      "contractAddress": null
    },
    {
      "status": "0x1",
      "cumulativeGasUsed": "0xcecaa3",
      "logs": [
        {
          "address": "0x1a596ef4c034a66cba457c87260b119988cd4fe7",
          "topics": [
            "0x8c5be1e5ebec7d5bd14f71427d1e84f3dd0314c0f7b2291e5b200ac8c7c3b925",
            "0x00000000000000000000000037ca3984f65beb9400669c94faeefaf1fc649964",
            "0x0000000000000000000000000bf3de8c5d3e8a2b34d2beeb17abfcebaf363a59"
          ],
          "data": "0x00000000000000000000000000000000000000000000000000038d7ea4c68000",
          "blockHash": "0x9e408b88bfd3e6194234a76ca3ba84af91bfd3dca0a3f78e691fa3cb895b0cc4",
          "blockNumber": "0x8bbed6",
          "transactionHash": "0x8c4b9211274c2ea8ae1e99dadb87a7d50d91d3b9fbb2a4922fb03902e8909ff7",
          "transactionIndex": "0x54",
          "logIndex": "0x72",
          "removed": false
        }
      ],
      "logsBloom": "0x00000000000040400000000000000000000000000000000000000000000000000000000000000000000000200000000000000000000000000000000000200008000000000000000000000000000000000000000000000000000000000000000000000000000100000000000000000000000000000000000000000000000000000000000000000000000000000000000000000000000000000000000000000000020000000040080000000000000000000000000000000000000000000000000000000000000000000000000000400000000000000000000000000000000000000010000000000000000000000000000000001000000000000000000000000000",
      "type": "0x2",
      "transactionHash": "0x8c4b9211274c2ea8ae1e99dadb87a7d50d91d3b9fbb2a4922fb03902e8909ff7",
      "transactionIndex": "0x54",
      "blockHash": "0x9e408b88bfd3e6194234a76ca3ba84af91bfd3dca0a3f78e691fa3cb895b0cc4",
      "blockNumber": "0x8bbed6",
      "gasUsed": "0xb554",
      "effectiveGasPrice": "0x2bb5ce",
      "from": "0x37ca3984f65beb9400669c94faeefaf1fc649964",
      "to": "0x1a596ef4c034a66cba457c87260b119988cd4fe7",
      "contractAddress": null
    },
    {
      "status": "0x1",
      "cumulativeGasUsed": "0x8a7b70",
      "logs": [
        {
          "address": "0x779877a7b0d9e8603169ddbd7836e478b4624789",
          "topics": [
            "0xddf252ad1be2c89b69c2b068fc378daa952ba7f163c4a11628f55a4df523b3ef",
            "0x00000000000000000000000037ca3984f65beb9400669c94faeefaf1fc649964",
            "0x000000000000000000000000bc09627e58989ba8f1eda775e486467d2a00944f"
          ],
          "data": "0x0000000000000000000000000000000000000000000000000075543f71c8fb80",
          "blockHash": "0x3ac8459e2c84e078698be13a3ecb0f32819d38641e3f95cefdd760686d4474b1",
          "blockNumber": "0x8bbeda",
          "transactionHash": "0xc984bb38a73e08cab88609f4dc1007fad30cf1f3753016ac8bd1e94626161c49",
          "transactionIndex": "0x5e",
          "logIndex": "0x7c",
          "removed": false
        },
        {
          "address": "0x779877a7b0d9e8603169ddbd7836e478b4624789",
          "topics": [
            "0x8c5be1e5ebec7d5bd14f71427d1e84f3dd0314c0f7b2291e5b200ac8c7c3b925",
            "0x00000000000000000000000037ca3984f65beb9400669c94faeefaf1fc649964",
            "0x0000000000000000000000000bf3de8c5d3e8a2b34d2beeb17abfcebaf363a59"
          ],
          "data": "0x0000000000000000000000000000000000000000000000000000000000000000",
          "blockHash": "0x3ac8459e2c84e078698be13a3ecb0f32819d38641e3f95cefdd760686d4474b1",
          "blockNumber": "0x8bbeda",
          "transactionHash": "0xc984bb38a73e08cab88609f4dc1007fad30cf1f3753016ac8bd1e94626161c49",
          "transactionIndex": "0x5e",
          "logIndex": "0x7d",
          "removed": false
        },
        {
          "address": "0x1a596ef4c034a66cba457c87260b119988cd4fe7",
          "topics": [
            "0xddf252ad1be2c89b69c2b068fc378daa952ba7f163c4a11628f55a4df523b3ef",
            "0x0000000000000000000000000000000000000000000000000000000000000000",
            "0x00000000000000000000000037ca3984f65beb9400669c94faeefaf1fc649964"
          ],
          "data": "0x0000000000000000000000000000000000000000000000000000000336e2bae2",
          "blockHash": "0x3ac8459e2c84e078698be13a3ecb0f32819d38641e3f95cefdd760686d4474b1",
          "blockNumber": "0x8bbeda",
          "transactionHash": "0xc984bb38a73e08cab88609f4dc1007fad30cf1f3753016ac8bd1e94626161c49",
          "transactionIndex": "0x5e",
          "logIndex": "0x7e",
          "removed": false
        },
        {
          "address": "0x1a596ef4c034a66cba457c87260b119988cd4fe7",
          "topics": [
            "0xddf252ad1be2c89b69c2b068fc378daa952ba7f163c4a11628f55a4df523b3ef",
            "0x0000000000000000000000000000000000000000000000000000000000000000",
            "0x00000000000000000000000026c39daf444c0653bac7611153481500754655e3"
          ],
          "data": "0x0000000000000000000000000000000000000000000000000000000000000000",
          "blockHash": "0x3ac8459e2c84e078698be13a3ecb0f32819d38641e3f95cefdd760686d4474b1",
          "blockNumber": "0x8bbeda",
          "transactionHash": "0xc984bb38a73e08cab88609f4dc1007fad30cf1f3753016ac8bd1e94626161c49",
          "transactionIndex": "0x5e",
          "logIndex": "0x7f",
          "removed": false
        },
        {
          "address": "0x1a596ef4c034a66cba457c87260b119988cd4fe7",
          "topics": [
            "0xddf252ad1be2c89b69c2b068fc378daa952ba7f163c4a11628f55a4df523b3ef",
            "0x00000000000000000000000037ca3984f65beb9400669c94faeefaf1fc649964",
            "0x00000000000000000000000026c39daf444c0653bac7611153481500754655e3"
          ],
          "data": "0x00000000000000000000000000000000000000000000000000038d7ea4c68000",
          "blockHash": "0x3ac8459e2c84e078698be13a3ecb0f32819d38641e3f95cefdd760686d4474b1",
          "blockNumber": "0x8bbeda",
          "transactionHash": "0xc984bb38a73e08cab88609f4dc1007fad30cf1f3753016ac8bd1e94626161c49",
          "transactionIndex": "0x5e",
          "logIndex": "0x80",
          "removed": false
        },
        {
          "address": "0x1a596ef4c034a66cba457c87260b119988cd4fe7",
          "topics": [
            "0xddf252ad1be2c89b69c2b068fc378daa952ba7f163c4a11628f55a4df523b3ef",
            "0x0000000000000000000000000000000000000000000000000000000000000000",
            "0x00000000000000000000000026c39daf444c0653bac7611153481500754655e3"
          ],
          "data": "0x0000000000000000000000000000000000000000000000000000000000000000",
          "blockHash": "0x3ac8459e2c84e078698be13a3ecb0f32819d38641e3f95cefdd760686d4474b1",
          "blockNumber": "0x8bbeda",
          "transactionHash": "0xc984bb38a73e08cab88609f4dc1007fad30cf1f3753016ac8bd1e94626161c49",
          "transactionIndex": "0x5e",
          "logIndex": "0x81",
          "removed": false
        },
        {
          "address": "0x1a596ef4c034a66cba457c87260b119988cd4fe7",
          "topics": [
            "0xddf252ad1be2c89b69c2b068fc378daa952ba7f163c4a11628f55a4df523b3ef",
            "0x00000000000000000000000026c39daf444c0653bac7611153481500754655e3",
            "0x0000000000000000000000000000000000000000000000000000000000000000"
          ],
          "data": "0x00000000000000000000000000000000000000000000000000038d7ea4c68000",
          "blockHash": "0x3ac8459e2c84e078698be13a3ecb0f32819d38641e3f95cefdd760686d4474b1",
          "blockNumber": "0x8bbeda",
          "transactionHash": "0xc984bb38a73e08cab88609f4dc1007fad30cf1f3753016ac8bd1e94626161c49",
          "transactionIndex": "0x5e",
          "logIndex": "0x82",
          "removed": false
        },
        {
          "address": "0xbc09627e58989ba8f1eda775e486467d2a00944f",
          "topics": [
            "0xd0c3c799bf9e2639de44391e7f524d229b2b55f5b1ea94b2bf7da42f7243dddd"
          ],
          "data": "0x0000000000000000000000000000000000000000000000000000000000000020000000000000000000000000000000000000000000000000de41ba4fc9d91ad900000000000000000000000037ca3984f65beb9400669c94faeefaf1fc64996400000000000000000000000037ca3984f65beb9400669c94faeefaf1fc6499640000000000000000000000000000000000000000000000000000000000004fe50000000000000000000000000000000000000000000000000000000000061a8000000000000000000000000000000000000000000000000000000000000000000000000000000000000000000000000000000000000000000000000000000002000000000000000000000000779877a7b0d9e8603169ddbd7836e478b46247890000000000000000000000000000000000000000000000000075543f71c8fb8000000000000000000000000000000000000000000000000000000000000001a000000000000000000000000000000000000000000000000000000000000001c000000000000000000000000000000000000000000000000000000000000002200a542099dec24b754dc9e6b58a2c01be9813d000c3955d90c878e6ce0d7d3478000000000000000000000000000000000000000000000000000000000000000000000000000000000000000000000000000000000000000000000000000000010000000000000000000000001a596ef4c034a66cba457c87260b119988cd4fe700000000000000000000000000000000000000000000000000038d7ea4c680000000000000000000000000000000000000000000000000000000000000000001000000000000000000000000000000000000000000000000000000000000002000000000000000000000000000000000000000000000000000000000000001600000000000000000000000000000000000000000000000000000000000000020000000000000000000000000000000000000000000000000000000000000008000000000000000000000000000000000000000000000000000000000000000c000000000000000000000000000000000000000000000000000000000000001000000000000000000000000000000000000000000000000000000000000015f90000000000000000000000000000000000000000000000000000000000000002000000000000000000000000026c39daf444c0653bac7611153481500754655e300000000000000000000000000000000000000000000000000000000000000200000000000000000000000000756a4434da1bfe16e2e29fe0dc7f7b7df4745af00000000000000000000000000000000000000000000000000000000000000200000000000000000000000000000000000000000000000000000000ba43b7400",
          "blockHash": "0x3ac8459e2c84e078698be13a3ecb0f32819d38641e3f95cefdd760686d4474b1",
          "blockNumber": "0x8bbeda",
          "transactionHash": "0xc984bb38a73e08cab88609f4dc1007fad30cf1f3753016ac8bd1e94626161c49",
          "transactionIndex": "0x5e",
          "logIndex": "0x83",
          "removed": false
        }
      ],
      "logsBloom": "0x00000004080040400000000000000000000000000000000000000000000000000000000000000000000000200000000000000100000000000000000000200008000100000000000000000008000000000000000000000000000000000000000000020000020100000000000000800800000000000000000000000010000000000000000000000000000000000000800000000000000000000000000000000000020000000040080400400000000000000000000000000000000100000000000000000002000000000000800002400000000000000000000100000000000020000010000000000000000000000000000004001000000000040000000000000000",
      "type": "0x2",
      "transactionHash": "0xc984bb38a73e08cab88609f4dc1007fad30cf1f3753016ac8bd1e94626161c49",
      "transactionIndex": "0x5e",
      "blockHash": "0x3ac8459e2c84e078698be13a3ecb0f32819d38641e3f95cefdd760686d4474b1",
      "blockNumber": "0x8bbeda",
      "gasUsed": "0x34e66",
      "effectiveGasPrice": "0x2d36fa",
      "from": "0x37ca3984f65beb9400669c94faeefaf1fc649964",
      "to": "0x0bf3de8c5d3e8a2b34d2beeb17abfcebaf363a59",
      "contractAddress": null
    }
  ],
  "libraries": [],
  "pending": [],
  "returns": {
    "0": {
      "internal_type": "bytes32",
      "value": "0x55459157e236411eec54715342bc87f69928584aef98d5ac3dea349496448e7e"
    }
  },
  "timestamp": 1757313710230,
  "chain": 11155111,
  "commit": null
}