{
  "transactions": [
    {
      "hash": "0x0ae425ba13607d96653cf69b13c834795c5ff6cdb84eac756a3d5487ac98261d",
      "transactionType": "CALL",
      "contractName": null,
      "contractAddress": "0x779877a7b0d9e8603169ddbd7836e478b4624789",
      "function": "approve(address,uint256)",
      "arguments": [
        "0x0BF3dE8c5D3e8A2B34D2BEeB17ABfCeBaf363A59",
        "21424193632389076"
      ],
      "transaction": {
        "from": "0x37ca3984f65beb9400669c94faeefaf1fc649964",
        "to": "0x779877a7b0d9e8603169ddbd7836e478b4624789",
        "gas": "0x1081f",
        "value": "0x0",
        "input": "0x095ea7b30000000000000000000000000bf3de8c5d3e8a2b34d2beeb17abfcebaf363a59000000000000000000000000000000000000000000000000004c1d30cb0ec7d4",
        "nonce": "0x33",
        "chainId": "0xaa36a7"
      },
      "additionalContracts": [],
      "isFixedGasLimit": false
    },
    {
      "hash": "0x7be8825fcc29c2edf56ae84c8be8b7cbdec0d655cea29b4cc831c0efc78ab0a1",
      "transactionType": "CALL",
      "contractName": null,
      "contractAddress": "0x1a596ef4c034a66cba457c87260b119988cd4fe7",
      "function": "approve(address,uint256)",
      "arguments": [
        "0x0BF3dE8c5D3e8A2B34D2BEeB17ABfCeBaf363A59",
        "1000000000000000"
      ],
      "transaction": {
        "from": "0x37ca3984f65beb9400669c94faeefaf1fc649964",
        "to": "0x1a596ef4c034a66cba457c87260b119988cd4fe7",
        "gas": "0xfa75",
        "value": "0x0",
        "input": "0x095ea7b30000000000000000000000000bf3de8c5d3e8a2b34d2beeb17abfcebaf363a5900000000000000000000000000000000000000000000000000038d7ea4c68000",
        "nonce": "0x34",
        "chainId": "0xaa36a7"
      },
      "additionalContracts": [],
      "isFixedGasLimit": false
    },
    {
      "hash": "0x5acafcaca665cdd1ba6bbf1cdc3e66b75025fdccc96b3e8832264cf39303d413",
      "transactionType": "CALL",
      "contractName": null,
      "contractAddress": "0x0bf3de8c5d3e8a2b34d2beeb17abfcebaf363a59",
      "function": "ccipSend(uint64,(bytes,bytes,(address,uint256)[],address,bytes))",
      "arguments": [
        "3478487238524512106",
        "(0x00000000000000000000000037ca3984f65beb9400669c94faeefaf1fc649964, 0x, [(0x1a596EF4c034A66CBA457C87260b119988cd4Fe7, 1000000000000000)], 0x779877A7B0D9E8603169DdbD7836e478b4624789, 0x181dcf1000000000000000000000000000000000000000000000000000000000000000000000000000000000000000000000000000000000000000000000000000000000)"
      ],
      "transaction": {
        "from": "0x37ca3984f65beb9400669c94faeefaf1fc649964",
        "to": "0x0bf3de8c5d3e8a2b34d2beeb17abfcebaf363a59",
        "gas": "0x5da42",
        "value": "0x0",
        "input": "0x96f4e9f9000000000000000000000000000000000000000000000000304611b6affba76a000000000000000000000000000000000000000000000000000000000000004000000000000000000000000000000000000000000000000000000000000000a000000000000000000000000000000000000000000000000000000000000000e00000000000000000000000000000000000000000000000000000000000000100000000000000000000000000779877a7b0d9e8603169ddbd7836e478b46247890000000000000000000000000000000000000000000000000000000000000160000000000000000000000000000000000000000000000000000000000000002000000000000000000000000037ca3984f65beb9400669c94faeefaf1fc649964000000000000000000000000000000000000000000000000000000000000000000000000000000000000000000000000000000000000000000000000000000010000000000000000000000001a596ef4c034a66cba457c87260b119988cd4fe700000000000000000000000000000000000000000000000000038d7ea4c680000000000000000000000000000000000000000000000000000000000000000044181dcf100000000000000000000000000000000000000000000000000000000000000000000000000000000000000000000000000000000000000000000000000000000000000000000000000000000000000000000000000000000000000000",
        "nonce": "0x35",
        "chainId": "0xaa36a7"
      },
      "additionalContracts": [],
      "isFixedGasLimit": false
    }
  ],
  "receipts": [
    {
      "status": "0x1",
      "cumulativeGasUsed": "0xaab214",
      "logs": [
        {
          "address": "0x779877a7b0d9e8603169ddbd7836e478b4624789",
          "topics": [
            "0x8c5be1e5ebec7d5bd14f71427d1e84f3dd0314c0f7b2291e5b200ac8c7c3b925",
            "0x00000000000000000000000037ca3984f65beb9400669c94faeefaf1fc649964",
            "0x0000000000000000000000000bf3de8c5d3e8a2b34d2beeb17abfcebaf363a59"
          ],
          "data": "0x000000000000000000000000000000000000000000000000004c1d30cb0ec7d4",
          "blockHash": "0x9e92e1d81476774acedd489a33d1d85b97c7d35322dd5e9bef22c80ea9cfecbc",
          "blockNumber": "0x8bbde9",
          "transactionHash": "0x0ae425ba13607d96653cf69b13c834795c5ff6cdb84eac756a3d5487ac98261d",
          "transactionIndex": "0x3b",
          "logIndex": "0x54",
          "removed": false
        }
      ],
      "logsBloom": "0x00000004000040000000000000000000000000000000000000000000000000000000000000000000000000200000000000000000000000000000000000200008000000000000000000000000000000000000000000000000000000000000000000000000000100000000000000000000000000000000000000000000000000000000000000000000000000000000800000000000000000000000000000000000020000000000080000000000000000000000000000000000000000000000000000000000000000000000000000400000000000000000000100000000000000000010000000000000000000000000000000000000000000000000000000000000",
      "type": "0x2",
      "transactionHash": "0x0ae425ba13607d96653cf69b13c834795c5ff6cdb84eac756a3d5487ac98261d",
      "transactionIndex": "0x3b",
      "blockHash": "0x9e92e1d81476774acedd489a33d1d85b97c7d35322dd5e9bef22c80ea9cfecbc",
      "blockNumber": "0x8bbde9",
      "gasUsed": "0xb499",
      "effectiveGasPrice": "0x304232",
      "from": "0x37ca3984f65beb9400669c94faeefaf1fc649964",
      "to": "0x779877a7b0d9e8603169ddbd7836e478b4624789",
      "contractAddress": null
    },
    {
      "status": "0x1",
      "cumulativeGasUsed": "0x14ea19b",
      "logs": [
        {
          "address": "0x1a596ef4c034a66cba457c87260b119988cd4fe7",
          "topics": [
            "0x8c5be1e5ebec7d5bd14f71427d1e84f3dd0314c0f7b2291e5b200ac8c7c3b925",
            "0x00000000000000000000000037ca3984f65beb9400669c94faeefaf1fc649964",
            "0x0000000000000000000000000bf3de8c5d3e8a2b34d2beeb17abfcebaf363a59"
          ],
          "data": "0x00000000000000000000000000000000000000000000000000038d7ea4c68000",
          "blockHash": "0xbb555bb99aafa5f1f369b2f6108bfb935b14811bb27e1e3ae2477e69b13d2f29",
          "blockNumber": "0x8bbdea",
          "transactionHash": "0x7be8825fcc29c2edf56ae84c8be8b7cbdec0d655cea29b4cc831c0efc78ab0a1",
          "transactionIndex": "0x93",
          "logIndex": "0x1a6",
          "removed": false
        }
      ],
      "logsBloom": "0x00000000000040400000000000000000000000000000000000000000000000000000000000000000000000200000000000000000000000000000000000200008000000000000000000000000000000000000000000000000000000000000000000000000000100000000000000000000000000000000000000000000000000000000000000000000000000000000000000000000000000000000000000000000020000000040080000000000000000000000000000000000000000000000000000000000000000000000000000400000000000000000000000000000000000000010000000000000000000000000000000001000000000000000000000000000",
      "type": "0x2",
      "transactionHash": "0x7be8825fcc29c2edf56ae84c8be8b7cbdec0d655cea29b4cc831c0efc78ab0a1",
      "transactionIndex": "0x93",
      "blockHash": "0xbb555bb99aafa5f1f369b2f6108bfb935b14811bb27e1e3ae2477e69b13d2f29",
      "blockNumber": "0x8bbdea",
      "gasUsed": "0xb554",
      "effectiveGasPrice": "0x2eaa65",
      "from": "0x37ca3984f65beb9400669c94faeefaf1fc649964",
      "to": "0x1a596ef4c034a66cba457c87260b119988cd4fe7",
      "contractAddress": null
    },
    {
      "status": "0x1",
      "cumulativeGasUsed": "0x152de52",
      "logs": [
        {
          "address": "0x779877a7b0d9e8603169ddbd7836e478b4624789",
          "topics": [
            "0xddf252ad1be2c89b69c2b068fc378daa952ba7f163c4a11628f55a4df523b3ef",
            "0x00000000000000000000000037ca3984f65beb9400669c94faeefaf1fc649964",
            "0x000000000000000000000000bc09627e58989ba8f1eda775e486467d2a00944f"
          ],
          "data": "0x000000000000000000000000000000000000000000000000004c1d30cb0ec7d4",
          "blockHash": "0xbb555bb99aafa5f1f369b2f6108bfb935b14811bb27e1e3ae2477e69b13d2f29",
          "blockNumber": "0x8bbdea",
          "transactionHash": "0x5acafcaca665cdd1ba6bbf1cdc3e66b75025fdccc96b3e8832264cf39303d413",
          "transactionIndex": "0x94",
          "logIndex": "0x1a7",
          "removed": false
        },
        {
          "address": "0x779877a7b0d9e8603169ddbd7836e478b4624789",
          "topics": [
            "0x8c5be1e5ebec7d5bd14f71427d1e84f3dd0314c0f7b2291e5b200ac8c7c3b925",
            "0x00000000000000000000000037ca3984f65beb9400669c94faeefaf1fc649964",
            "0x0000000000000000000000000bf3de8c5d3e8a2b34d2beeb17abfcebaf363a59"
          ],
          "data": "0x0000000000000000000000000000000000000000000000000000000000000000",
          "blockHash": "0xbb555bb99aafa5f1f369b2f6108bfb935b14811bb27e1e3ae2477e69b13d2f29",
          "blockNumber": "0x8bbdea",
          "transactionHash": "0x5acafcaca665cdd1ba6bbf1cdc3e66b75025fdccc96b3e8832264cf39303d413",
          "transactionIndex": "0x94",
          "logIndex": "0x1a8",
          "removed": false
        },
        {
          "address": "0x1a596ef4c034a66cba457c87260b119988cd4fe7",
          "topics": [
            "0xddf252ad1be2c89b69c2b068fc378daa952ba7f163c4a11628f55a4df523b3ef",
            "0x0000000000000000000000000000000000000000000000000000000000000000",
            "0x00000000000000000000000037ca3984f65beb9400669c94faeefaf1fc649964"
          ],
          "data": "0x00000000000000000000000000000000000000000000000000000060abd93800",
          "blockHash": "0xbb555bb99aafa5f1f369b2f6108bfb935b14811bb27e1e3ae2477e69b13d2f29",
          "blockNumber": "0x8bbdea",
          "transactionHash": "0x5acafcaca665cdd1ba6bbf1cdc3e66b75025fdccc96b3e8832264cf39303d413",
          "transactionIndex": "0x94",
          "logIndex": "0x1a9",
          "removed": false
        },
        {
          "address": "0x1a596ef4c034a66cba457c87260b119988cd4fe7",
          "topics": [
            "0x38d53bad452fcaa15aa99f52f6d6078251ea603e13645f40bc92e9bfde736cd2",
            "0x00000000000000000000000026c39daf444c0653bac7611153481500754655e3",
            "0x0000000000000000000000000000000000000000000000000000000000000000",
            "0x0000000000000000000000000000000000000000000000000000000ba43b7400"
          ],
          "data": "0x",
          "blockHash": "0xbb555bb99aafa5f1f369b2f6108bfb935b14811bb27e1e3ae2477e69b13d2f29",
          "blockNumber": "0x8bbdea",
          "transactionHash": "0x5acafcaca665cdd1ba6bbf1cdc3e66b75025fdccc96b3e8832264cf39303d413",
          "transactionIndex": "0x94",
          "logIndex": "0x1aa",
          "removed": false
        },
        {
          "address": "0x1a596ef4c034a66cba457c87260b119988cd4fe7",
          "topics": [
            "0xddf252ad1be2c89b69c2b068fc378daa952ba7f163c4a11628f55a4df523b3ef",
            "0x00000000000000000000000037ca3984f65beb9400669c94faeefaf1fc649964",
            "0x00000000000000000000000026c39daf444c0653bac7611153481500754655e3"
          ],
          "data": "0x00000000000000000000000000000000000000000000000000038d7ea4c68000",
          "blockHash": "0xbb555bb99aafa5f1f369b2f6108bfb935b14811bb27e1e3ae2477e69b13d2f29",
          "blockNumber": "0x8bbdea",
          "transactionHash": "0x5acafcaca665cdd1ba6bbf1cdc3e66b75025fdccc96b3e8832264cf39303d413",
          "transactionIndex": "0x94",
          "logIndex": "0x1ab",
          "removed": false
        },
        {
          "address": "0x1a596ef4c034a66cba457c87260b119988cd4fe7",
          "topics": [
            "0xddf252ad1be2c89b69c2b068fc378daa952ba7f163c4a11628f55a4df523b3ef",
            "0x0000000000000000000000000000000000000000000000000000000000000000",
            "0x00000000000000000000000026c39daf444c0653bac7611153481500754655e3"
          ],
          "data": "0x0000000000000000000000000000000000000000000000000000000000000000",
          "blockHash": "0xbb555bb99aafa5f1f369b2f6108bfb935b14811bb27e1e3ae2477e69b13d2f29",
          "blockNumber": "0x8bbdea",
          "transactionHash": "0x5acafcaca665cdd1ba6bbf1cdc3e66b75025fdccc96b3e8832264cf39303d413",
          "transactionIndex": "0x94",
          "logIndex": "0x1ac",
          "removed": false
        },
        {
          "address": "0x1a596ef4c034a66cba457c87260b119988cd4fe7",
          "topics": [
            "0xddf252ad1be2c89b69c2b068fc378daa952ba7f163c4a11628f55a4df523b3ef",
            "0x00000000000000000000000026c39daf444c0653bac7611153481500754655e3",
            "0x0000000000000000000000000000000000000000000000000000000000000000"
          ],
          "data": "0x00000000000000000000000000000000000000000000000000038d7ea4c68000",
          "blockHash": "0xbb555bb99aafa5f1f369b2f6108bfb935b14811bb27e1e3ae2477e69b13d2f29",
          "blockNumber": "0x8bbdea",
          "transactionHash": "0x5acafcaca665cdd1ba6bbf1cdc3e66b75025fdccc96b3e8832264cf39303d413",
          "transactionIndex": "0x94",
          "logIndex": "0x1ad",
          "removed": false
        },
        {
          "address": "0xbc09627e58989ba8f1eda775e486467d2a00944f",
          "topics": [
            "0xd0c3c799bf9e2639de44391e7f524d229b2b55f5b1ea94b2bf7da42f7243dddd"
          ],
          "data": "0x0000000000000000000000000000000000000000000000000000000000000020000000000000000000000000000000000000000000000000de41ba4fc9d91ad900000000000000000000000037ca3984f65beb9400669c94faeefaf1fc64996400000000000000000000000037ca3984f65beb9400669c94faeefaf1fc6499640000000000000000000000000000000000000000000000000000000000004fe3000000000000000000000000000000000000000000000000000000000000000000000000000000000000000000000000000000000000000000000000000000000000000000000000000000000000000000000000000000000000000000000001000000000000000000000000779877a7b0d9e8603169ddbd7836e478b4624789000000000000000000000000000000000000000000000000004c1d30cb0ec7d400000000000000000000000000000000000000000000000000000000000001a000000000000000000000000000000000000000000000000000000000000001c000000000000000000000000000000000000000000000000000000000000002206dd1c8e70d3db695fed2623469f0fc025d415672d132e4c0b2f829bd48ebb5a7000000000000000000000000000000000000000000000000000000000000000000000000000000000000000000000000000000000000000000000000000000010000000000000000000000001a596ef4c034a66cba457c87260b119988cd4fe700000000000000000000000000000000000000000000000000038d7ea4c680000000000000000000000000000000000000000000000000000000000000000001000000000000000000000000000000000000000000000000000000000000002000000000000000000000000000000000000000000000000000000000000001600000000000000000000000000000000000000000000000000000000000000020000000000000000000000000000000000000000000000000000000000000008000000000000000000000000000000000000000000000000000000000000000c000000000000000000000000000000000000000000000000000000000000001000000000000000000000000000000000000000000000000000000000000015f90000000000000000000000000000000000000000000000000000000000000002000000000000000000000000026c39daf444c0653bac7611153481500754655e300000000000000000000000000000000000000000000000000000000000000200000000000000000000000000756a4434da1bfe16e2e29fe0dc7f7b7df4745af00000000000000000000000000000000000000000000000000000000000000200000000000000000000000000000000000000000000000000000000ba43b7400",
          "blockHash": "0xbb555bb99aafa5f1f369b2f6108bfb935b14811bb27e1e3ae2477e69b13d2f29",
          "blockNumber": "0x8bbdea",
          "transactionHash": "0x5acafcaca665cdd1ba6bbf1cdc3e66b75025fdccc96b3e8832264cf39303d413",
          "transactionIndex": "0x94",
          "logIndex": "0x1ae",
          "removed": false
        }
      ],
      "logsBloom": "0x00000004080040400000000000000000000000000000000000000000000000000000000000000000000000200000000800000100000000200000000000200008000100000000000000000008000000000000000000000000000000000000000000020000020100000000000000800800000000000000000000000010000000000000000000000000000000000000800000000000000000000000000000000000020000000040080400400000000000000000000000000000000100000000000000000002000000000000800002400000000000000000002100000000000020000014000000000000000000000060000004001000000000040000000000000000",
      "type": "0x2",
      "transactionHash": "0x5acafcaca665cdd1ba6bbf1cdc3e66b75025fdccc96b3e8832264cf39303d413",
      "transactionIndex": "0x94",
      "blockHash": "0xbb555bb99aafa5f1f369b2f6108bfb935b14811bb27e1e3ae2477e69b13d2f29",
      "blockNumber": "0x8bbdea",
      "gasUsed": "0x43cb7",
      "effectiveGasPrice": "0x2eaa65",
      "from": "0x37ca3984f65beb9400669c94faeefaf1fc649964",
      "to": "0x0bf3de8c5d3e8a2b34d2beeb17abfcebaf363a59",
      "contractAddress": null
    }
  ],
  "libraries": [],
  "pending": [],
  "returns": {
    "0": {
      "internal_type": "bytes32",
      "value": "0x6dd1c8e70d3db695fed2623469f0fc025d415672d132e4c0b2f829bd48ebb5a7"
    }
  },
  "timestamp": 1757310745754,
  "chain": 11155111,
  "commit": null
}