{
  "transactions": [
    {
      "hash": "0x2e41ea8c9a46866d3a35a0bbcfc3f3e5711ae9194d91fc80cd9a3bfe034c8efe",
      "transactionType": "CALL",
      "contractName": null,
      "contractAddress": "0x779877a7b0d9e8603169ddbd7836e478b4624789",
      "function": "approve(address,uint256)",
      "arguments": [
        "0x0BF3dE8c5D3e8A2B34D2BEeB17ABfCeBaf363A59",
        "21561366071554078"
      ],
      "transaction": {
        "from": "0xf39fd6e51aad88f6f4ce6ab8827279cfffb92266",
        "to": "0x779877a7b0d9e8603169ddbd7836e478b4624789",
        "gas": "0x1081f",
        "value": "0x0",
        "input": "0x095ea7b30000000000000000000000000bf3de8c5d3e8a2b34d2beeb17abfcebaf363a59000000000000000000000000000000000000000000000000004c99f2bd91301e",
        "nonce": "0x444f",
        "chainId": "0xaa36a7"
      },
      "additionalContracts": [],
      "isFixedGasLimit": false
    },
    {
      "hash": "0xe70354b986a8fc2bfd85ce310fe4e33bcdd6aef152882989e83a0856fdf71968",
      "transactionType": "CALL",
      "contractName": null,
      "contractAddress": "0xbcdf4560487a86b97b923d2d5efa16689061b02e",
      "function": "approve(address,uint256)",
      "arguments": [
        "0x0BF3dE8c5D3e8A2B34D2BEeB17ABfCeBaf363A59",
        "1000000000000000000"
      ],
      "transaction": {
        "from": "0xf39fd6e51aad88f6f4ce6ab8827279cfffb92266",
        "to": "0xbcdf4560487a86b97b923d2d5efa16689061b02e",
        "gas": "0xfa75",
        "value": "0x0",
        "input": "0x095ea7b30000000000000000000000000bf3de8c5d3e8a2b34d2beeb17abfcebaf363a590000000000000000000000000000000000000000000000000de0b6b3a7640000",
        "nonce": "0x4450",
        "chainId": "0xaa36a7"
      },
      "additionalContracts": [],
      "isFixedGasLimit": false
    },
    {
      "hash": "0x28c4d286bdf09ca495ec3086affefa64b4996ce0097f48d7022f29a8006ac8b9",
      "transactionType": "CALL",
      "contractName": null,
      "contractAddress": "0x0bf3de8c5d3e8a2b34d2beeb17abfcebaf363a59",
      "function": "ccipSend(uint64,(bytes,bytes,(address,uint256)[],address,bytes))",
      "arguments": [
        "3478487238524512106",
        "(0x000000000000000000000000f39fd6e51aad88f6f4ce6ab8827279cfffb92266, 0x, [(0xBCdf4560487a86b97b923D2d5eFa16689061b02e, 1000000000000000000)], 0x779877A7B0D9E8603169DdbD7836e478b4624789, 0x181dcf1000000000000000000000000000000000000000000000000000000000000000000000000000000000000000000000000000000000000000000000000000000000)"
      ],
      "transaction": {
        "from": "0xf39fd6e51aad88f6f4ce6ab8827279cfffb92266",
        "to": "0x0bf3de8c5d3e8a2b34d2beeb17abfcebaf363a59",
        "gas": "0x63276",
        "value": "0x0",
        "input": "0x96f4e9f9000000000000000000000000000000000000000000000000304611b6affba76a000000000000000000000000000000000000000000000000000000000000004000000000000000000000000000000000000000000000000000000000000000a000000000000000000000000000000000000000000000000000000000000000e00000000000000000000000000000000000000000000000000000000000000100000000000000000000000000779877a7b0d9e8603169ddbd7836e478b462478900000000000000000000000000000000000000000000000000000000000001600000000000000000000000000000000000000000000000000000000000000020000000000000000000000000f39fd6e51aad88f6f4ce6ab8827279cfffb9226600000000000000000000000000000000000000000000000000000000000000000000000000000000000000000000000000000000000000000000000000000001000000000000000000000000bcdf4560487a86b97b923d2d5efa16689061b02e0000000000000000000000000000000000000000000000000de0b6b3a76400000000000000000000000000000000000000000000000000000000000000000044181dcf100000000000000000000000000000000000000000000000000000000000000000000000000000000000000000000000000000000000000000000000000000000000000000000000000000000000000000000000000000000000000000",
        "nonce": "0x4451",
        "chainId": "0xaa36a7"
      },
      "additionalContracts": [],
      "isFixedGasLimit": false
    }
  ],
  "receipts": [
    {
      "status": "0x1",
      "cumulativeGasUsed": "0xb499",
      "logs": [
        {
          "address": "0x779877a7b0d9e8603169ddbd7836e478b4624789",
          "topics": [
            "0x8c5be1e5ebec7d5bd14f71427d1e84f3dd0314c0f7b2291e5b200ac8c7c3b925",
            "0x000000000000000000000000f39fd6e51aad88f6f4ce6ab8827279cfffb92266",
            "0x0000000000000000000000000bf3de8c5d3e8a2b34d2beeb17abfcebaf363a59"
          ],
          "data": "0x000000000000000000000000000000000000000000000000004c99f2bd91301e",
          "blockHash": "0x171d2b838c57877764b9ced5fc7943902291bee648ac85eecd834dbd1de20d09",
          "blockNumber": "0x8ba165",
          "blockTimestamp": "0x68bd1b22",
          "transactionHash": "0x2e41ea8c9a46866d3a35a0bbcfc3f3e5711ae9194d91fc80cd9a3bfe034c8efe",
          "transactionIndex": "0x0",
          "logIndex": "0x0",
          "removed": false
        }
      ],
      "logsBloom": "0x00000004000040000000000000000000000000000000000000000000000000000000000000000000000000000000000000000000000000000000000000200000000000000000000000000000000000000000000000000000000000000000000000000000000100000000000100000000000000000000000000000000000000000000000000000000000000000000800000000000000000000000000000000000020000000000080000000000000000000000000000000000000000000000000000000000000000200000000000000000000000002000000100000000000000000010000000000000000000000000000000000000000000000000000000000000",
      "type": "0x2",
      "transactionHash": "0x2e41ea8c9a46866d3a35a0bbcfc3f3e5711ae9194d91fc80cd9a3bfe034c8efe",
      "transactionIndex": "0x0",
      "blockHash": "0x171d2b838c57877764b9ced5fc7943902291bee648ac85eecd834dbd1de20d09",
      "blockNumber": "0x8ba165",
      "gasUsed": "0xb499",
      "effectiveGasPrice": "0x121f83",
      "blobGasPrice": "0xa9f6a4f812c0",
      "from": "0xf39fd6e51aad88f6f4ce6ab8827279cfffb92266",
      "to": "0x779877a7b0d9e8603169ddbd7836e478b4624789",
      "contractAddress": null
    },
    {
      "status": "0x1",
      "cumulativeGasUsed": "0xb554",
      "logs": [
        {
          "address": "0xbcdf4560487a86b97b923d2d5efa16689061b02e",
          "topics": [
            "0x8c5be1e5ebec7d5bd14f71427d1e84f3dd0314c0f7b2291e5b200ac8c7c3b925",
            "0x000000000000000000000000f39fd6e51aad88f6f4ce6ab8827279cfffb92266",
            "0x0000000000000000000000000bf3de8c5d3e8a2b34d2beeb17abfcebaf363a59"
          ],
          "data": "0x0000000000000000000000000000000000000000000000000de0b6b3a7640000",
          "blockHash": "0x5e938d4e517e12e6585875638e5b26a490bb04244eaa236666f2663abf0e2194",
          "blockNumber": "0x8ba166",
          "blockTimestamp": "0x68bd1b22",
          "transactionHash": "0xe70354b986a8fc2bfd85ce310fe4e33bcdd6aef152882989e83a0856fdf71968",
          "transactionIndex": "0x0",
          "logIndex": "0x0",
          "removed": false
        }
      ],
      "logsBloom": "0x00000000000040000000000000000000000000000000000000000000000002000000000000000000000000000000000000000000000000000000000000200000000000000000000000000000000000000000000000000000000000000000000000000000000100000000000100000000000000000000000000000000000000000000000400000000000000000000000000000000000000000000000000000000020000000000080000000000000000000000000000000000000000000000000000000000020000200000000000000000000000002000000000000000000000000010000000000000000000000000000000000000000000000000000000000000",
      "type": "0x2",
      "transactionHash": "0xe70354b986a8fc2bfd85ce310fe4e33bcdd6aef152882989e83a0856fdf71968",
      "transactionIndex": "0x0",
      "blockHash": "0x5e938d4e517e12e6585875638e5b26a490bb04244eaa236666f2663abf0e2194",
      "blockNumber": "0x8ba166",
      "gasUsed": "0xb554",
      "effectiveGasPrice": "0x120196",
      "blobGasPrice": "0x971420bab2a2",
      "from": "0xf39fd6e51aad88f6f4ce6ab8827279cfffb92266",
      "to": "0xbcdf4560487a86b97b923d2d5efa16689061b02e",
      "contractAddress": null
    },
    {
      "status": "0x1",
      "cumulativeGasUsed": "0x4f217",
      "logs": [
        {
          "address": "0x779877a7b0d9e8603169ddbd7836e478b4624789",
          "topics": [
            "0xddf252ad1be2c89b69c2b068fc378daa952ba7f163c4a11628f55a4df523b3ef",
            "0x000000000000000000000000f39fd6e51aad88f6f4ce6ab8827279cfffb92266",
            "0x000000000000000000000000bc09627e58989ba8f1eda775e486467d2a00944f"
          ],
          "data": "0x000000000000000000000000000000000000000000000000004c99f2bd91301e",
          "blockHash": "0x5e938d4e517e12e6585875638e5b26a490bb04244eaa236666f2663abf0e2194",
          "blockNumber": "0x8ba166",
          "blockTimestamp": "0x68bd1b22",
          "transactionHash": "0x28c4d286bdf09ca495ec3086affefa64b4996ce0097f48d7022f29a8006ac8b9",
          "transactionIndex": "0x1",
          "logIndex": "0x1",
          "removed": false
        },
        {
          "address": "0x779877a7b0d9e8603169ddbd7836e478b4624789",
          "topics": [
            "0x8c5be1e5ebec7d5bd14f71427d1e84f3dd0314c0f7b2291e5b200ac8c7c3b925",
            "0x000000000000000000000000f39fd6e51aad88f6f4ce6ab8827279cfffb92266",
            "0x0000000000000000000000000bf3de8c5d3e8a2b34d2beeb17abfcebaf363a59"
          ],
          "data": "0x0000000000000000000000000000000000000000000000000000000000000000",
          "blockHash": "0x5e938d4e517e12e6585875638e5b26a490bb04244eaa236666f2663abf0e2194",
          "blockNumber": "0x8ba166",
          "blockTimestamp": "0x68bd1b22",
          "transactionHash": "0x28c4d286bdf09ca495ec3086affefa64b4996ce0097f48d7022f29a8006ac8b9",
          "transactionIndex": "0x1",
          "logIndex": "0x2",
          "removed": false
        },
        {
          "address": "0xbcdf4560487a86b97b923d2d5efa16689061b02e",
          "topics": [
            "0xddf252ad1be2c89b69c2b068fc378daa952ba7f163c4a11628f55a4df523b3ef",
            "0x0000000000000000000000000000000000000000000000000000000000000000",
            "0x000000000000000000000000f39fd6e51aad88f6f4ce6ab8827279cfffb92266"
          ],
          "data": "0x000000000000000000000000000000000000000000000000000021782aed8000",
          "blockHash": "0x5e938d4e517e12e6585875638e5b26a490bb04244eaa236666f2663abf0e2194",
          "blockNumber": "0x8ba166",
          "blockTimestamp": "0x68bd1b22",
          "transactionHash": "0x28c4d286bdf09ca495ec3086affefa64b4996ce0097f48d7022f29a8006ac8b9",
          "transactionIndex": "0x1",
          "logIndex": "0x3",
          "removed": false
        },
        {
          "address": "0xbcdf4560487a86b97b923d2d5efa16689061b02e",
          "topics": [
            "0x38d53bad452fcaa15aa99f52f6d6078251ea603e13645f40bc92e9bfde736cd2",
            "0x000000000000000000000000727625cf0fde96572c15c763a69266f542b59360",
            "0x0000000000000000000000000000000000000000000000000000000000000000",
            "0x0000000000000000000000000000000000000000000000000000000ba43b7400"
          ],
          "data": "0x",
          "blockHash": "0x5e938d4e517e12e6585875638e5b26a490bb04244eaa236666f2663abf0e2194",
          "blockNumber": "0x8ba166",
          "blockTimestamp": "0x68bd1b22",
          "transactionHash": "0x28c4d286bdf09ca495ec3086affefa64b4996ce0097f48d7022f29a8006ac8b9",
          "transactionIndex": "0x1",
          "logIndex": "0x4",
          "removed": false
        },
        {
          "address": "0xbcdf4560487a86b97b923d2d5efa16689061b02e",
          "topics": [
            "0xddf252ad1be2c89b69c2b068fc378daa952ba7f163c4a11628f55a4df523b3ef",
            "0x000000000000000000000000f39fd6e51aad88f6f4ce6ab8827279cfffb92266",
            "0x000000000000000000000000727625cf0fde96572c15c763a69266f542b59360"
          ],
          "data": "0x0000000000000000000000000000000000000000000000000de0b6b3a7640000",
          "blockHash": "0x5e938d4e517e12e6585875638e5b26a490bb04244eaa236666f2663abf0e2194",
          "blockNumber": "0x8ba166",
          "blockTimestamp": "0x68bd1b22",
          "transactionHash": "0x28c4d286bdf09ca495ec3086affefa64b4996ce0097f48d7022f29a8006ac8b9",
          "transactionIndex": "0x1",
          "logIndex": "0x5",
          "removed": false
        },
        {
          "address": "0xbcdf4560487a86b97b923d2d5efa16689061b02e",
          "topics": [
            "0xddf252ad1be2c89b69c2b068fc378daa952ba7f163c4a11628f55a4df523b3ef",
            "0x0000000000000000000000000000000000000000000000000000000000000000",
            "0x000000000000000000000000727625cf0fde96572c15c763a69266f542b59360"
          ],
          "data": "0x0000000000000000000000000000000000000000000000000000000000000000",
          "blockHash": "0x5e938d4e517e12e6585875638e5b26a490bb04244eaa236666f2663abf0e2194",
          "blockNumber": "0x8ba166",
          "blockTimestamp": "0x68bd1b22",
          "transactionHash": "0x28c4d286bdf09ca495ec3086affefa64b4996ce0097f48d7022f29a8006ac8b9",
          "transactionIndex": "0x1",
          "logIndex": "0x6",
          "removed": false
        },
        {
          "address": "0xbcdf4560487a86b97b923d2d5efa16689061b02e",
          "topics": [
            "0xddf252ad1be2c89b69c2b068fc378daa952ba7f163c4a11628f55a4df523b3ef",
            "0x000000000000000000000000727625cf0fde96572c15c763a69266f542b59360",
            "0x0000000000000000000000000000000000000000000000000000000000000000"
          ],
          "data": "0x0000000000000000000000000000000000000000000000000de0b6b3a7640000",
          "blockHash": "0x5e938d4e517e12e6585875638e5b26a490bb04244eaa236666f2663abf0e2194",
          "blockNumber": "0x8ba166",
          "blockTimestamp": "0x68bd1b22",
          "transactionHash": "0x28c4d286bdf09ca495ec3086affefa64b4996ce0097f48d7022f29a8006ac8b9",
          "transactionIndex": "0x1",
          "logIndex": "0x7",
          "removed": false
        },
        {
          "address": "0xbc09627e58989ba8f1eda775e486467d2a00944f",
          "topics": [
            "0xd0c3c799bf9e2639de44391e7f524d229b2b55f5b1ea94b2bf7da42f7243dddd"
          ],
          "data": "0x0000000000000000000000000000000000000000000000000000000000000020000000000000000000000000000000000000000000000000de41ba4fc9d91ad9000000000000000000000000f39fd6e51aad88f6f4ce6ab8827279cfffb92266000000000000000000000000f39fd6e51aad88f6f4ce6ab8827279cfffb922660000000000000000000000000000000000000000000000000000000000004fce000000000000000000000000000000000000000000000000000000000000000000000000000000000000000000000000000000000000000000000000000000000000000000000000000000000000000000000000000000000000000000000001000000000000000000000000779877a7b0d9e8603169ddbd7836e478b4624789000000000000000000000000000000000000000000000000004c99f2bd91301e00000000000000000000000000000000000000000000000000000000000001a000000000000000000000000000000000000000000000000000000000000001c0000000000000000000000000000000000000000000000000000000000000022039b341362e9807cd5fb4b3dfc9bff8320165e04885619786d97518ad6a4ff6f500000000000000000000000000000000000000000000000000000000000000000000000000000000000000000000000000000000000000000000000000000001000000000000000000000000bcdf4560487a86b97b923d2d5efa16689061b02e0000000000000000000000000000000000000000000000000de0b6b3a76400000000000000000000000000000000000000000000000000000000000000000001000000000000000000000000000000000000000000000000000000000000002000000000000000000000000000000000000000000000000000000000000001600000000000000000000000000000000000000000000000000000000000000020000000000000000000000000000000000000000000000000000000000000008000000000000000000000000000000000000000000000000000000000000000c000000000000000000000000000000000000000000000000000000000000001000000000000000000000000000000000000000000000000000000000000015f900000000000000000000000000000000000000000000000000000000000000020000000000000000000000000727625cf0fde96572c15c763a69266f542b59360000000000000000000000000000000000000000000000000000000000000002000000000000000000000000096cb05af7262b12f2a5ffc488bbf9a63d006d04f00000000000000000000000000000000000000000000000000000000000000200000000000000000000000000000000000000000000000000000000ba43b7400",
          "blockHash": "0x5e938d4e517e12e6585875638e5b26a490bb04244eaa236666f2663abf0e2194",
          "blockNumber": "0x8ba166",
          "blockTimestamp": "0x68bd1b22",
          "transactionHash": "0x28c4d286bdf09ca495ec3086affefa64b4996ce0097f48d7022f29a8006ac8b9",
          "transactionIndex": "0x1",
          "logIndex": "0x8",
          "removed": false
        }
      ],
      "logsBloom": "0x00000004080040000000000000000000000000000000000000000000000002000000000000000080000000000000000800000000000000200000000000200000000100000000000000000008000000000000000000000000000000000000000000020000020100000000000100000800000000000000000000000010000000000000000400000000000000000000800000000000000000000000000000000004020000000000080400400000000000000000000000000000000100000000000000000002020000200000000002000000000000002000002100000000000020000014000000000000000000000060000004000008000000040000000000000000",
      "type": "0x2",
      "transactionHash": "0x28c4d286bdf09ca495ec3086affefa64b4996ce0097f48d7022f29a8006ac8b9",
      "transactionIndex": "0x1",
      "blockHash": "0x5e938d4e517e12e6585875638e5b26a490bb04244eaa236666f2663abf0e2194",
      "blockNumber": "0x8ba166",
      "gasUsed": "0x43cc3",
      "effectiveGasPrice": "0x120196",
      "blobGasPrice": "0x971420bab2a2",
      "from": "0xf39fd6e51aad88f6f4ce6ab8827279cfffb92266",
      "to": "0x0bf3de8c5d3e8a2b34d2beeb17abfcebaf363a59",
      "contractAddress": null
    }
  ],
  "libraries": [],
  "pending": [],
  "returns": {
    "0": {
      "internal_type": "bytes32",
      "value": "0x39b341362e9807cd5fb4b3dfc9bff8320165e04885619786d97518ad6a4ff6f5"
    }
  },
  "timestamp": 1757223721762,
  "chain": 11155111,
  "commit": null
}