{
  "transactions": [
    {
      "hash": "0xb4502e0449a5239922cf8e889a6367850af4950ff1f9fc3352ac41546362f105",
      "transactionType": "CALL",
      "contractName": null,
      "contractAddress": "0x779877a7b0d9e8603169ddbd7836e478b4624789",
      "function": "approve(address,uint256)",
      "arguments": [
        "0x0BF3dE8c5D3e8A2B34D2BEeB17ABfCeBaf363A59",
        "21538976035409950"
      ],
      "transaction": {
        "from": "0xf39fd6e51aad88f6f4ce6ab8827279cfffb92266",
        "to": "0x779877a7b0d9e8603169ddbd7836e478b4624789",
        "gas": "0x1081f",
        "value": "0x0",
        "input": "0x095ea7b30000000000000000000000000bf3de8c5d3e8a2b34d2beeb17abfcebaf363a59000000000000000000000000000000000000000000000000004c8595a76a901e",
        "nonce": "0x444f",
        "chainId": "0xaa36a7"
      },
      "additionalContracts": [],
      "isFixedGasLimit": false
    },
    {
      "hash": "0xe736a1a6cc050ed7eb96c58c2e888e5c90967ccfee57082ca2858af630ae3934",
      "transactionType": "CALL",
      "contractName": null,
      "contractAddress": "0xbcdf4560487a86b97b923d2d5efa16689061b02e",
      "function": "approve(address,uint256)",
      "arguments": [
        "0x0BF3dE8c5D3e8A2B34D2BEeB17ABfCeBaf363A59",
        "1000000000000000000"
      ],
      "transaction": {
        "from": "0xf39fd6e51aad88f6f4ce6ab8827279cfffb92266",
        "to": "0xbcdf4560487a86b97b923d2d5efa16689061b02e",
        "gas": "0xfa75",
        "value": "0x0",
        "input": "0x095ea7b30000000000000000000000000bf3de8c5d3e8a2b34d2beeb17abfcebaf363a590000000000000000000000000000000000000000000000000de0b6b3a7640000",
        "nonce": "0x4450",
        "chainId": "0xaa36a7"
      },
      "additionalContracts": [],
      "isFixedGasLimit": false
    },
    {
      "hash": "0x7846056572a5f2298c8a7adc039e1b9f208d775b0cf09b7bca465928a6c42560",
      "transactionType": "CALL",
      "contractName": null,
      "contractAddress": "0x0bf3de8c5d3e8a2b34d2beeb17abfcebaf363a59",
      "function": "ccipSend(uint64,(bytes,bytes,(address,uint256)[],address,bytes))",
      "arguments": [
        "3478487238524512106",
        "(0x000000000000000000000000f39fd6e51aad88f6f4ce6ab8827279cfffb92266, 0x, [(0xBCdf4560487a86b97b923D2d5eFa16689061b02e, 1000000000000000000)], 0x779877A7B0D9E8603169DdbD7836e478b4624789, 0x181dcf1000000000000000000000000000000000000000000000000000000000000000000000000000000000000000000000000000000000000000000000000000000000)"
      ],
      "transaction": {
        "from": "0xf39fd6e51aad88f6f4ce6ab8827279cfffb92266",
        "to": "0x0bf3de8c5d3e8a2b34d2beeb17abfcebaf363a59",
        "gas": "0x5eb9f",
        "value": "0x0",
        "input": "0x96f4e9f9000000000000000000000000000000000000000000000000304611b6affba76a000000000000000000000000000000000000000000000000000000000000004000000000000000000000000000000000000000000000000000000000000000a000000000000000000000000000000000000000000000000000000000000000e00000000000000000000000000000000000000000000000000000000000000100000000000000000000000000779877a7b0d9e8603169ddbd7836e478b462478900000000000000000000000000000000000000000000000000000000000001600000000000000000000000000000000000000000000000000000000000000020000000000000000000000000f39fd6e51aad88f6f4ce6ab8827279cfffb9226600000000000000000000000000000000000000000000000000000000000000000000000000000000000000000000000000000000000000000000000000000001000000000000000000000000bcdf4560487a86b97b923d2d5efa16689061b02e0000000000000000000000000000000000000000000000000de0b6b3a76400000000000000000000000000000000000000000000000000000000000000000044181dcf100000000000000000000000000000000000000000000000000000000000000000000000000000000000000000000000000000000000000000000000000000000000000000000000000000000000000000000000000000000000000000",
        "nonce": "0x4451",
        "chainId": "0xaa36a7"
      },
      "additionalContracts": [],
      "isFixedGasLimit": false
    }
  ],
  "receipts": [
    {
      "status": "0x1",
      "cumulativeGasUsed": "0xb499",
      "logs": [
        {
          "address": "0x779877a7b0d9e8603169ddbd7836e478b4624789",
          "topics": [
            "0x8c5be1e5ebec7d5bd14f71427d1e84f3dd0314c0f7b2291e5b200ac8c7c3b925",
            "0x000000000000000000000000f39fd6e51aad88f6f4ce6ab8827279cfffb92266",
            "0x0000000000000000000000000bf3de8c5d3e8a2b34d2beeb17abfcebaf363a59"
          ],
          "data": "0x000000000000000000000000000000000000000000000000004c8595a76a901e",
          "blockHash": "0xe77953f870868677cb9dc84f16aba15e7213a843d94d1350f83ff359cdf0825a",
          "blockNumber": "0x8b9f8f",
          "blockTimestamp": "0x68bd126b",
          "transactionHash": "0xb4502e0449a5239922cf8e889a6367850af4950ff1f9fc3352ac41546362f105",
          "transactionIndex": "0x0",
          "logIndex": "0x0",
          "removed": false
        }
      ],
      "logsBloom": "0x00000004000040000000000000000000000000000000000000000000000000000000000000000000000000000000000000000000000000000000000000200000000000000000000000000000000000000000000000000000000000000000000000000000000100000000000100000000000000000000000000000000000000000000000000000000000000000000800000000000000000000000000000000000020000000000080000000000000000000000000000000000000000000000000000000000000000200000000000000000000000002000000100000000000000000010000000000000000000000000000000000000000000000000000000000000",
      "type": "0x2",
      "transactionHash": "0xb4502e0449a5239922cf8e889a6367850af4950ff1f9fc3352ac41546362f105",
      "transactionIndex": "0x0",
      "blockHash": "0xe77953f870868677cb9dc84f16aba15e7213a843d94d1350f83ff359cdf0825a",
      "blockNumber": "0x8b9f8f",
      "gasUsed": "0xb499",
      "effectiveGasPrice": "0x1c83d0",
      "blobGasPrice": "0x187493bd4e5",
      "from": "0xf39fd6e51aad88f6f4ce6ab8827279cfffb92266",
      "to": "0x779877a7b0d9e8603169ddbd7836e478b4624789",
      "contractAddress": null
    },
    {
      "status": "0x1",
      "cumulativeGasUsed": "0xb554",
      "logs": [
        {
          "address": "0xbcdf4560487a86b97b923d2d5efa16689061b02e",
          "topics": [
            "0x8c5be1e5ebec7d5bd14f71427d1e84f3dd0314c0f7b2291e5b200ac8c7c3b925",
            "0x000000000000000000000000f39fd6e51aad88f6f4ce6ab8827279cfffb92266",
            "0x0000000000000000000000000bf3de8c5d3e8a2b34d2beeb17abfcebaf363a59"
          ],
          "data": "0x0000000000000000000000000000000000000000000000000de0b6b3a7640000",
          "blockHash": "0x8c1a1588c8dd0b24a0760e576526d71443e7e03de3d0ec6ae418da8f0438f4f1",
          "blockNumber": "0x8b9f90",
          "blockTimestamp": "0x68bd126b",
          "transactionHash": "0xe736a1a6cc050ed7eb96c58c2e888e5c90967ccfee57082ca2858af630ae3934",
          "transactionIndex": "0x0",
          "logIndex": "0x0",
          "removed": false
        }
      ],
      "logsBloom": "0x00000000000040000000000000000000000000000000000000000000000002000000000000000000000000000000000000000000000000000000000000200000000000000000000000000000000000000000000000000000000000000000000000000000000100000000000100000000000000000000000000000000000000000000000400000000000000000000000000000000000000000000000000000000020000000000080000000000000000000000000000000000000000000000000000000000020000200000000000000000000000002000000000000000000000000010000000000000000000000000000000000000000000000000000000000000",
      "type": "0x2",
      "transactionHash": "0xe736a1a6cc050ed7eb96c58c2e888e5c90967ccfee57082ca2858af630ae3934",
      "transactionIndex": "0x0",
      "blockHash": "0x8c1a1588c8dd0b24a0760e576526d71443e7e03de3d0ec6ae418da8f0438f4f1",
      "blockNumber": "0x8b9f90",
      "gasUsed": "0xb554",
      "effectiveGasPrice": "0x1adc46",
      "blobGasPrice": "0x15bcf51524b",
      "from": "0xf39fd6e51aad88f6f4ce6ab8827279cfffb92266",
      "to": "0xbcdf4560487a86b97b923d2d5efa16689061b02e",
      "contractAddress": null
    },
    {
      "status": "0x1",
      "cumulativeGasUsed": "0x4f217",
      "logs": [
        {
          "address": "0x779877a7b0d9e8603169ddbd7836e478b4624789",
          "topics": [
            "0xddf252ad1be2c89b69c2b068fc378daa952ba7f163c4a11628f55a4df523b3ef",
            "0x000000000000000000000000f39fd6e51aad88f6f4ce6ab8827279cfffb92266",
            "0x000000000000000000000000bc09627e58989ba8f1eda775e486467d2a00944f"
          ],
          "data": "0x000000000000000000000000000000000000000000000000004c8595a76a901e",
          "blockHash": "0x8c1a1588c8dd0b24a0760e576526d71443e7e03de3d0ec6ae418da8f0438f4f1",
          "blockNumber": "0x8b9f90",
          "blockTimestamp": "0x68bd126b",
          "transactionHash": "0x7846056572a5f2298c8a7adc039e1b9f208d775b0cf09b7bca465928a6c42560",
          "transactionIndex": "0x1",
          "logIndex": "0x1",
          "removed": false
        },
        {
          "address": "0x779877a7b0d9e8603169ddbd7836e478b4624789",
          "topics": [
            "0x8c5be1e5ebec7d5bd14f71427d1e84f3dd0314c0f7b2291e5b200ac8c7c3b925",
            "0x000000000000000000000000f39fd6e51aad88f6f4ce6ab8827279cfffb92266",
            "0x0000000000000000000000000bf3de8c5d3e8a2b34d2beeb17abfcebaf363a59"
          ],
          "data": "0x0000000000000000000000000000000000000000000000000000000000000000",
          "blockHash": "0x8c1a1588c8dd0b24a0760e576526d71443e7e03de3d0ec6ae418da8f0438f4f1",
          "blockNumber": "0x8b9f90",
          "blockTimestamp": "0x68bd126b",
          "transactionHash": "0x7846056572a5f2298c8a7adc039e1b9f208d775b0cf09b7bca465928a6c42560",
          "transactionIndex": "0x1",
          "logIndex": "0x2",
          "removed": false
        },
        {
          "address": "0xbcdf4560487a86b97b923d2d5efa16689061b02e",
          "topics": [
            "0xddf252ad1be2c89b69c2b068fc378daa952ba7f163c4a11628f55a4df523b3ef",
            "0x0000000000000000000000000000000000000000000000000000000000000000",
            "0x000000000000000000000000f39fd6e51aad88f6f4ce6ab8827279cfffb92266"
          ],
          "data": "0x0000000000000000000000000000000000000000000000000000268460b4cc00",
          "blockHash": "0x8c1a1588c8dd0b24a0760e576526d71443e7e03de3d0ec6ae418da8f0438f4f1",
          "blockNumber": "0x8b9f90",
          "blockTimestamp": "0x68bd126b",
          "transactionHash": "0x7846056572a5f2298c8a7adc039e1b9f208d775b0cf09b7bca465928a6c42560",
          "transactionIndex": "0x1",
          "logIndex": "0x3",
          "removed": false
        },
        {
          "address": "0xbcdf4560487a86b97b923d2d5efa16689061b02e",
          "topics": [
            "0x38d53bad452fcaa15aa99f52f6d6078251ea603e13645f40bc92e9bfde736cd2",
            "0x000000000000000000000000727625cf0fde96572c15c763a69266f542b59360",
            "0x0000000000000000000000000000000000000000000000000000000000000000",
            "0x0000000000000000000000000000000000000000000000000000000ba43b7400"
          ],
          "data": "0x",
          "blockHash": "0x8c1a1588c8dd0b24a0760e576526d71443e7e03de3d0ec6ae418da8f0438f4f1",
          "blockNumber": "0x8b9f90",
          "blockTimestamp": "0x68bd126b",
          "transactionHash": "0x7846056572a5f2298c8a7adc039e1b9f208d775b0cf09b7bca465928a6c42560",
          "transactionIndex": "0x1",
          "logIndex": "0x4",
          "removed": false
        },
        {
          "address": "0xbcdf4560487a86b97b923d2d5efa16689061b02e",
          "topics": [
            "0xddf252ad1be2c89b69c2b068fc378daa952ba7f163c4a11628f55a4df523b3ef",
            "0x000000000000000000000000f39fd6e51aad88f6f4ce6ab8827279cfffb92266",
            "0x000000000000000000000000727625cf0fde96572c15c763a69266f542b59360"
          ],
          "data": "0x0000000000000000000000000000000000000000000000000de0b6b3a7640000",
          "blockHash": "0x8c1a1588c8dd0b24a0760e576526d71443e7e03de3d0ec6ae418da8f0438f4f1",
          "blockNumber": "0x8b9f90",
          "blockTimestamp": "0x68bd126b",
          "transactionHash": "0x7846056572a5f2298c8a7adc039e1b9f208d775b0cf09b7bca465928a6c42560",
          "transactionIndex": "0x1",
          "logIndex": "0x5",
          "removed": false
        },
        {
          "address": "0xbcdf4560487a86b97b923d2d5efa16689061b02e",
          "topics": [
            "0xddf252ad1be2c89b69c2b068fc378daa952ba7f163c4a11628f55a4df523b3ef",
            "0x0000000000000000000000000000000000000000000000000000000000000000",
            "0x000000000000000000000000727625cf0fde96572c15c763a69266f542b59360"
          ],
          "data": "0x0000000000000000000000000000000000000000000000000000000000000000",
          "blockHash": "0x8c1a1588c8dd0b24a0760e576526d71443e7e03de3d0ec6ae418da8f0438f4f1",
          "blockNumber": "0x8b9f90",
          "blockTimestamp": "0x68bd126b",
          "transactionHash": "0x7846056572a5f2298c8a7adc039e1b9f208d775b0cf09b7bca465928a6c42560",
          "transactionIndex": "0x1",
          "logIndex": "0x6",
          "removed": false
        },
        {
          "address": "0xbcdf4560487a86b97b923d2d5efa16689061b02e",
          "topics": [
            "0xddf252ad1be2c89b69c2b068fc378daa952ba7f163c4a11628f55a4df523b3ef",
            "0x000000000000000000000000727625cf0fde96572c15c763a69266f542b59360",
            "0x0000000000000000000000000000000000000000000000000000000000000000"
          ],
          "data": "0x0000000000000000000000000000000000000000000000000de0b6b3a7640000",
          "blockHash": "0x8c1a1588c8dd0b24a0760e576526d71443e7e03de3d0ec6ae418da8f0438f4f1",
          "blockNumber": "0x8b9f90",
          "blockTimestamp": "0x68bd126b",
          "transactionHash": "0x7846056572a5f2298c8a7adc039e1b9f208d775b0cf09b7bca465928a6c42560",
          "transactionIndex": "0x1",
          "logIndex": "0x7",
          "removed": false
        },
        {
          "address": "0xbc09627e58989ba8f1eda775e486467d2a00944f",
          "topics": [
            "0xd0c3c799bf9e2639de44391e7f524d229b2b55f5b1ea94b2bf7da42f7243dddd"
          ],
          "data": "0x0000000000000000000000000000000000000000000000000000000000000020000000000000000000000000000000000000000000000000de41ba4fc9d91ad9000000000000000000000000f39fd6e51aad88f6f4ce6ab8827279cfffb92266000000000000000000000000f39fd6e51aad88f6f4ce6ab8827279cfffb922660000000000000000000000000000000000000000000000000000000000004fce000000000000000000000000000000000000000000000000000000000000000000000000000000000000000000000000000000000000000000000000000000000000000000000000000000000000000000000000000000000000000000000001000000000000000000000000779877a7b0d9e8603169ddbd7836e478b4624789000000000000000000000000000000000000000000000000004c8595a76a901e00000000000000000000000000000000000000000000000000000000000001a000000000000000000000000000000000000000000000000000000000000001c000000000000000000000000000000000000000000000000000000000000002203a3f75f5c6d6f666fe87433ff9e1b3c19165f5b82a3c9f248eb22d3692333d9400000000000000000000000000000000000000000000000000000000000000000000000000000000000000000000000000000000000000000000000000000001000000000000000000000000bcdf4560487a86b97b923d2d5efa16689061b02e0000000000000000000000000000000000000000000000000de0b6b3a76400000000000000000000000000000000000000000000000000000000000000000001000000000000000000000000000000000000000000000000000000000000002000000000000000000000000000000000000000000000000000000000000001600000000000000000000000000000000000000000000000000000000000000020000000000000000000000000000000000000000000000000000000000000008000000000000000000000000000000000000000000000000000000000000000c000000000000000000000000000000000000000000000000000000000000001000000000000000000000000000000000000000000000000000000000000015f900000000000000000000000000000000000000000000000000000000000000020000000000000000000000000727625cf0fde96572c15c763a69266f542b59360000000000000000000000000000000000000000000000000000000000000002000000000000000000000000096cb05af7262b12f2a5ffc488bbf9a63d006d04f00000000000000000000000000000000000000000000000000000000000000200000000000000000000000000000000000000000000000000000000ba43b7400",
          "blockHash": "0x8c1a1588c8dd0b24a0760e576526d71443e7e03de3d0ec6ae418da8f0438f4f1",
          "blockNumber": "0x8b9f90",
          "blockTimestamp": "0x68bd126b",
          "transactionHash": "0x7846056572a5f2298c8a7adc039e1b9f208d775b0cf09b7bca465928a6c42560",
          "transactionIndex": "0x1",
          "logIndex": "0x8",
          "removed": false
        }
      ],
      "logsBloom": "0x00000004080040000000000000000000000000000000000000000000000002000000000000000080000000000000000800000000000000200000000000200000000100000000000000000008000000000000000000000000000000000000000000020000020100000000000100000800000000000000000000000010000000000000000400000000000000000000800000000000000000000000000000000004020000000000080400400000000000000000000000000000000100000000000000000002020000200000000002000000000000002000002100000000000020000014000000000000000000000060000004000008000000040000000000000000",
      "type": "0x2",
      "transactionHash": "0x7846056572a5f2298c8a7adc039e1b9f208d775b0cf09b7bca465928a6c42560",
      "transactionIndex": "0x1",
      "blockHash": "0x8c1a1588c8dd0b24a0760e576526d71443e7e03de3d0ec6ae418da8f0438f4f1",
      "blockNumber": "0x8b9f90",
      "gasUsed": "0x43cc3",
      "effectiveGasPrice": "0x1adc46",
      "blobGasPrice": "0x15bcf51524b",
      "from": "0xf39fd6e51aad88f6f4ce6ab8827279cfffb92266",
      "to": "0x0bf3de8c5d3e8a2b34d2beeb17abfcebaf363a59",
      "contractAddress": null
    }
  ],
  "libraries": [],
  "pending": [],
  "returns": {
    "0": {
      "internal_type": "bytes32",
      "value": "0x3a3f75f5c6d6f666fe87433ff9e1b3c19165f5b82a3c9f248eb22d3692333d94"
    }
  },
  "timestamp": 1757221486496,
  "chain": 11155111,
  "commit": null
}